:020000040800F2
:106000000812002029E20308B3FD09085BC0070855
:10601000B7310A0863C0070867C007086BC00708E4
:10602000B3FD0908B3FD0908B3FD0908399C0C0844
:106030006FC0070880270E08DD9B0C0825C60C08DA
:1060400089DE0308B3FD0908B3FD0908B3FD09089B
:10605000B3FD0908B3FD0908B3FD0908B3FD09083C
:10606000B3FD0908B3FD0908B3FD090885990008C7
:10607000B3FD0908B3FD0908B3FD0908B3FD09081C
:10608000B3FD0908B3FD0908B3FD0908B3FD09080C
:10609000B3FD0908BDEA0308B3FD0908B3FD09080B
:1060A000B3FD0908A9E5030889E50308B3FD09085C
:1060B000B3FD09085595070801A00708456A0C08B3
:1060C000416A0C08919707085B6A0C08496A0C083A
:1060D000D19F07084D6A0C0841A00708A9A007082E
:1060E000B3FD0908B3FD0908B3FD0908B3FD0908AC
:1060F000AB270A08B3FD0908B3FD0908B3FD090879
:10610000B3FD0908B3FD0908B3FD0908B3FD09088B
:10611000B3FD0908B3FD0908B3FD0908B3FD09087B
:10612000B3FD0908B3FD0908B3FD0908B3FD09086B
:10613000B3FD0908B3FD0908B3FD0908B3FD09085B
:10614000B3FD0908AD2E0408B3FD090845C50C08C8
:1061500071790708B3FD0908276A0C082D6A0C0835
:10616000B3FD0908B3FD0908B3FD0908B3FD09082B
:10618000F0B5114A114C124E00F00105E3695F07AA
:1061900013D40DB9334213D103EA00078F4207D15C
:1061A0000B4A1A40002A0CBF00206FF00100F0BD1E
:1061B000013AEBD16FF00200F9E74FF0FF30F6E75C
:1061C0006FF00100F3E700BF8096980000000350D5
:1061D0000200010070B50B4BD96911F480310DD16B
:1061E00001244FF48072084E084DF46020462C6460
:1061F0001A61FFF7C5FF3464EC6070BD6FF00100F9
:10620000FBE700BF000003500010035000200350C4
:106210004FF4803238B50E4B0E4C9A66E56941F664
:10622000713315400122E3630B4B0021DA60022336
:10623000606121202361FFF7A3FF10B92120FFF740
:106240009FFF0122054BDA600DB10023E36338BDE7
:106250000090005000000350001003500020035035
:1062600070B5134C6061E3695B071ED40E4656F8A7
:10627000043B8D18A361AE420BD1042300212120E1
:106280002361FFF77DFF58B9BDE870402120FFF77B
:1062900077BF08210846FFF773FF10B1042323617D
:1062A00070BD56F8043BA361E5E74FF0FF30F7E718
:1062B000000003502DE9F84315464FF48032184B87
:1062C00089469A6603F51C33DF690646174041F696
:1062D0007132DA63012203F58053DFF84C80DA6013
:1062E00055B9284601220F4BDA601FB10022A3F5F1
:1062F0000053DA63BDE8F88306F5005404EA0804A5
:10630000A41BAC4228BF2C46494622463046FFF724
:10631000A7FF0028E6D12644A1442D1BE0E700BFDB
:10632000009000500020035000E0FFFF000000003C
:10633000000000000000000000000000000000005D
:106340002DE9F04F00252DED028B04461646A94697
:106350002F469FED358B90F838309BB00591039315
:1063600000F108080295039A2BB29A420ED1029BC3
:1063700020460CA9CDF830900D938DF8387006F0BA
:106380003FFC1BB0BDEC028BBDE8F08F58F8043F1A
:10639000615D2748049388F079F884460DF1180E62
:1063A000BCE80F00AEE80F009CE803008EE8030095
:1063B00031680CA80B689B6998470A9BDDF82CB0E4
:1063C00001930198DDE90C239B4508BF90429DF89D
:1063D000191027D19DF838A08A4523D1154B57466F
:1063E0000C93059B144A10930023314611A8119277
:1063F000CDE912338DF850308DED0E8B99F02AF9DE
:10640000316816A80B689B699847049AE36B126879
:106410000CA906A898470CA805F0D4FFDDF8049055
:10642000CDF808B001359EE7000000000000000034
:1064300050AF002098EC0C08341F0E08000000003C
:106440002DE9F04F2DED028B92460A68BFB0029005
:106450000393084692690C469047039B06AE1D7E47
:106460000746D3E90089D3E9040193ED028B86E85E
:10647000030093F824B025B1D3E9070109AA82E803
:1064800003000023BBF1020F8DF8173000F081806C
:106490000DF117025146204679F0B9F8024600285E
:1064A00079D19FED3F7B404BDFF804A118683F494D
:1064B000DAF800300968B3F844300EAC0B908DED7B
:1064C000007B2046ADF832308DF830700D9108F029
:1064D00007FA42464B4600940BA881F0F9FF50BBE7
:1064E0009DF81730EBB100259DF8EC308DED308B29
:1064F000CDE92E898DF8C8B013B1204681F08AFF0E
:1065000096E80600204681F042FF2F2821D18725FA
:10651000204608F06DFA28463FB0BDEC028BBDE87E
:10652000F08F35B1DDE90912204600F0B9FA0028F4
:10653000D9D10125ECE7D828FBD10BA8BDF8EE5046
:1065400082F045F8854222D20BA882F025F8054654
:10655000CAE70028EDD12246BDF8EE100BA814F0D2
:10656000E1FD074668B915B1029808F0EDF9DAF8CF
:1065700000000025C3680C301B6998474A9B1860CF
:10658000C6E7204681F046FF2F2FC0D0D1E78925EE
:10659000BEE78725BFE70125BDE700BFAFF3008059
:1065A0000000000000000000E4350120E03501207B
:1065B000DC350120000000002DE9F04F2DED028BAD
:1065C00091F92C30044601330D46ABB00AD10023BB
:1065D0000193019B022B0ED919202BB0BDEC028B2D
:1065E000BDE8F08F284601A990F017FD0028F0D0F3
:1065F00040F28550F1E7204613B97EF080FFECE7CA
:1066000011F01AF8804600285ED020467EF067FF21
:1066100000217EF090FF037C0768002B57D000F12B
:1066200020020DF1080C00F1600366461068516805
:10663000083203C69A42B446F7D14FF0010900264A
:106640009FED5D8B14A890F0DCF8294614A81296F3
:1066500090F0ECF820468DED248B22968DF8986012
:106660007EF0FDFEDFF858B112A85FFA86FA7EF0E0
:106670005DFE002861D0129B002B5ED114A922A8D8
:106680008DED248B22938DF89830B4F0CAFF1290D0
:10669000002852D1514604F130007EF04CFF229A7E
:1066A000054602F52843C0335B4506D8DDE92431B1
:1066B000BAF1000F0DD10B430DD020467EF0F6FE4F
:1066C00000288AD1B92088E781460746B7E799466E
:1066D000B5E70B43F1D02A60DDE92423C5E90223A5
:1066E0009DF8983023B1DDF8A0A0BAF1000F03D1D6
:1066F00000232B740136B7E7BAF1400FDDD805F15E
:106700002003402200211846B8F0D1FD9DF89820C2
:106710000AB9B8F091FCDDE92712924506D220466D
:106720007EF0C4FE00287FF458AF61E7B8F0A5FD05
:106730000122C5E9050A2A74DCE7129B212B01D04E
:10674000002BECD1C4F838A0B8F1000F1ED02046C1
:1067500010F072FFD0B120467EF0C1FE00217EF025
:10676000EAFE0368057CBB4219D065B1B9F1000FA0
:1067700009D08369402B06D14022406902A9B8F0B4
:106780006CFD00B915B1042384F8543120467EF025
:10679000A6FE014604F5A87011F084FC1DE7002D4B
:1067A000F4D0B9F1000FF1D08369402BEBD1002573
:1067B000E2E700BFAFF3008000000000000000002F
:1067C000A06D0100000000002DE9F0472DED028BC7
:1067D000C8B01AAB0293B6230393002304468B6020
:1067E0000CA80D467BF0AFFC43490CA87BF001FDE3
:1067F000204602AA0CA97FF064F8D0B90CA890F04A
:1068000000F802A904A87AF0A6FDDDE904120CA89C
:1068100090F03AF84FF48072002316210CA890F003
:10682000CCFB30B90DF103010CA890F000FA06463C
:1068300020B148B0BDEC028BBDE8F08701A90CA8DF
:1068400090F0EBFB019A6B689A4239D860249FED77
:10685000288B01270CA890F078FB50B12128E8D1B3
:106860009DF903100CA890F03CFB0446B8B32046F9
:10687000DFE76B689E4201D3B8F0DEFB04FB06F94C
:10688000D5F800A004908DF820000CA904A88DED87
:10689000068B0AEB0908B4F0C4FE0028C9D1049B9A
:1068A0004AF80930DDE90623C8E902239DF82030C3
:1068B00093B1DDE90919B9F1400F08F1200301D9BD
:1068C0001920B6E74A461846B8F0D7FCC8E90509CA
:1068D00088F810700136BDE788F81030FAE70CA888
:1068E00090F033FB2128A4D1AE60C0E7AFF3008065
:1068F00000000000000000007F260D0800000000DE
:106900002DE9F04F2DED028BC36B0446BFB00BB9E0
:10691000B8F092FB066C002EFAD05B4D31462B6925
:1069200006A803F1010978F047FC0523002231464F
:1069300000930AA87AF0A2FC4FF000089FED508B5C
:10694000DFF854A10AA906A87AF0AFFC00285ED0AF
:1069500006A878F001FC90F88100B5F84410E26BCD
:10696000A36C8DF8100003A80392ADF812100593E4
:1069700081F012FE064600287DD1DFF820B103A881
:1069800081F025FEB7B2B84275D98DED008B00229B
:10699000A16C0EA807F0A4FF39460EAA03A881F047
:1069A00085FDD82864D048B15A460121212091F0B4
:1069B00011FF0EA808F01CF8474656E02046DDE916
:1069C00030239DF8B01081F007FB0028F1D0206D36
:1069D0000EA903689B68984707460028E9D0B8F1DC
:1069E000000F06D16B69BBB901212120274A91F024
:1069F000F1FE04F1580091F010FF804618BB2120F1
:106A00000121234A91F0E6FE0EA807F0F1FF3FB006
:106A1000BDEC028BBDE8F08F2B7E002BE4D02B6900
:106A20002A6C013393422B61E3D3E96B194811447B
:106A300081F062FB0028D7D1EA6B2B6913442A6CE2
:106A40009342D1D1D5E7616C13F078FE4B464046B6
:106A5000226C0EA913F05AFF20B1524601212120C9
:106A600091F0B8FE0EA807F0C3FFB846013686E7DE
:106A70000EA807F0BDFF06A881F017FB62E700BF74
:106A8000000000000000000080370120EC3A0D08F3
:106A9000333B0D088C370120573B0D089D3A0D08FC
:106AA0002DE9F04F2DED028BC7B008AE102A044639
:106AB000914686E8060068D1D0F8B810002966D063
:106AC00090F8B450002D3DD09FED338B00228DED1A
:106AD000008B16A807F004FF96E8060016A881F0C0
:106AE00056FC58BB4FF00D0BCDE90E00CDE9100060
:106AF000CDE91200CDE9140007908DF047FE079B09
:106B00003BAA0EAE0DF1300A12AFCDE90A01009298
:106B100080461A460D46CDF8149008210496CDF80B
:106B20000CA0CDF808B001970AA82BF065F98DEDFF
:106B30000A8B034660B116A881F06CFC002516A8EC
:106B400007F056FF284647B0BDEC028BBDE8F08F3A
:106B50000AAA94340821CDE904B2CDE90194024691
:106B60000397504600962BF02FFA079016A881F055
:106B700051FC079B002BE1D1DDE90A23AB4208BFA2
:106B800042450CBF01250025D9E70025DAE70D466F
:106B9000D8E700BFAFF30080000000000000000055
:106BA0002DE9F04F2DED028B083085B00F46914650
:106BB000DDF8508091F031FE0446002800F09A8004
:106BC0006E4600259FED4E8B4FF0010B41F2A45A0B
:106BD00010AB0FCB86E80F004B4BC4E90255236086
:106BE000C4E90455C4E906552C336360474B04F1EE
:106BF000480C0FCB84ED0E8BC4E90C5584F8205063
:106C000084F840508CE80F00414B84F858B0A4F849
:106C10005AA0E56584ED188BA36604F17C03C4E9F2
:106C20001F333C4B1022C4F890302946C4E91B5551
:106C3000C4E9255584F87450C4F88450C4F89C50B5
:106C400004F1A000B8F033FB84ED2E8B84F8B0B0D3
:106C5000A4F8B2A0C4F8B45004F1C00092F0CFFB85
:106C60004AF6C873C82284ED368B84ED388BC4E9AC
:106C70003A2304F58273C4E93E55C4E94133A4F8CC
:106C8000CC5084F8CE50A4F8D05084F80051C4F809
:106C90000C513B68A3607B68E360BB682361FB68C1
:106CA00063613B69A3617B69E3613B7E84F82030CB
:106CB00033B104F1240307F11C0207CA83E807007B
:106CC000384676F0B2FEA8B9B9F1000F12D0B8F18B
:106CD000000F0FD003CE3378C4F8309084F84030E2
:106CE000012384F8F830231DA063E163C4F8888091
:106CF000C4F89C30204605B0BDEC028BBDE8F08F97
:106D0000000000000000000058490D08003C012070
:106D1000341F0E08F0390D082DE9F04F2DED028BD0
:106D200000240025CBB09946CDE92E450023CDE9BE
:106D30003045CDE934454FF6FF74DFF898A206469A
:106D400088461746CDE90C338DF8C8303393CDF81B
:106D5000D8A04894A2B3054600F53474A54206D1E4
:106D60000B2420464BB0BDEC028BBDE8F08F2846CB
:106D700076F003FF08B19035F0E79FED8F8BBDF8FB
:106D80005C318DF8C880ADF820318D4B4FF4C8715F
:106D90000E93002309A8CDE909330F93CDF870A015
:106DA0000B937AF0E2FA099C14BB0B240BA876F043
:106DB00010FD0AA876F00DFD09A876F00AFDD0E7CF
:106DC00089F0CAFC044608B9AC24CAE706F5347554
:106DD000284675F0B5FAB4F882308DF8C880ADF861
:106DE000203121460CA894ED028B89F022FCCCE7DF
:106DF0004FF4C8710AA87AF0B8FADDF828A0BAF101
:106E0000000FD2D04FF4C8710BA87AF0AEFA0B9AEB
:106E1000002ACAD04FF4C8734146CDE91332304638
:106E200010AA1094CDE9113A159389F0F5FC0446A7
:106E30000028BBD14146304612AA89F0CFFC044657
:106E40000028B3D14146304614AA89F0A4FC044678
:106E50000028ABD110A916A87AF07DFA12A918A8BB
:106E60007AF079FA14A91AA87AF075FA36AB079372
:106E700030AB05930DF1B80A34ABCDE903A30DF1A6
:106E8000700B0EAB8DED008BCDF818B002931AAAE3
:106E900018A916A820F09CFD0446002886D10BA84E
:106EA00076F097FC0AA876F094FC09A876F091FC9D
:106EB000B9F1000F13D1D6F8640300285ED003683F
:106EC0009B6898470346D6F86403002B4ED00368AE
:106ED0005A4641465B699847044688B141E7D9F86C
:106EE000003048465B699847594689F08DFF08B9DC
:106EF000C52436E79DF85831CDF8CC908DF8223175
:106F00009DF860315146B3FA83F328465B098DF84A
:106F1000233189F0F5FE044600287FF422AF28468D
:106F20000CA989F0CBFB06F55D7495F881303FB371
:106F300002211120234A91F04DFCD5E900122B6962
:106F4000CDE9012100936B69022111201E4A91F0C5
:106F500041FC20460F9922F0E3FC034630BB96F833
:106F60008233013386F882330024FAE6036841460F
:106F7000DB6898470028C3D11024F2E60324F0E62A
:106F8000D5E900121120CDE9002102210F4A91F02C
:106F900021FC20460F9922F0C3FC03460028E3D0D1
:106FA000012111200A4A91F015FCDDE70121112091
:106FB000074A91F00FFCD2E700000000000000003B
:106FC000C89F0D088C9E0D08AC9E0D08EF9E0D0805
:106FD000249F0D088CE80D082DE9F0478AB00DF1CB
:106FE0000D0301931523064600934FF4807200238E
:106FF00008460C4690F0F2FAE8B996F8963001226D
:1070000000932046002390F070FAA0B996F89730CC
:10701000022200932046002390F067FA58B90DF140
:107020000E0301931623032200932046002390F0C1
:10703000D5FA054610B10AB0BDE8F0874FF0100947
:1070400006F1C8070DF11808102200214046B8F0DB
:107050002EF90DF10F03019315234FF48072009365
:107060002046002390F0BAFA0028E4D196F8972041
:10707000EBB29A4251D917ED0C7BC44637F828ACD5
:10708000A7F12603A7F1160E62461868596808335F
:1070900003C273459446F7D18DED007B0422002393
:1070A000204690F0FDF90028C5D105220023204696
:1070B000CDF800A090F019FA0028BCD1404649460E
:1070C00006228DE8030000232046CDE9048990F0D4
:1070D00058FB0028AFD120469DF90F1090F0B3FA6D
:1070E000013530370028A6D1032DADD120469DF9BA
:1070F0000E1090F0A8FA00289DD1B6F88E30072225
:1071000000932046002390F0F0F9002893D1204608
:107110009DF90D1090F097FA8DE782469FED027B66
:10712000BAE700BFAFF300800000000000000000DD
:10713000A0F1840050E700BF054B18680368D969C7
:1071400001A3D3E90023084700E0373B015D0300BA
:107150009C730220000000002DE9F84F402200211E
:107160002948B8F0A4F8302200212848B8F09FF848
:1071700000209FED237B264B264E274ADFF888B060
:10718000DFF8ACA0DFF8AC90DFF8AC80DFF8ACE063
:107190001E4FA3F1180C2425002145430BEB40148E
:1071A00043E9054A0CEB050443E9039843F8181C2E
:1071B00043F804EC21772162182404FB007442F8A0
:1071C000144C164C42F8181C42F8104C144CA6EC07
:1071D000027B42F80C4C134C43F8241B42F8084C39
:1071E000114C42F8044C114C2C442177216242F896
:1071F000241B08B1BDE8F88F0120CCE7AFF3008075
:107200000000000000000000BC8701208C870120E6
:107210005C87012090E9002014870120057704088D
:107220001F330A083D330A0877330A08FC86012019
:107230003577040845330A0807330A0849330A0832
:107240002DE9F043022089B0C1F0A4FE00B9FEE7A9
:10725000634E336803B9FEE71020C1F09BFE33682C
:10726000604C9B880DF10B018DF80B3001232068D9
:107270001A46BEF0D2FD9DF80B203168023A002379
:10728000096892B22068BEF0C8FD3368564993F889
:1072900029208DF814200022CDE906121B681D78E4
:1072A00015F0200516D02068BEF059FB002862D0EA
:1072B0002068BEF054FB5CF067FA0B46024644A11E
:1072C000D1E900015CF004FC5CF072FD079B1844FE
:1072D000012507902068BEF050FB9DF80B30002878
:1072E0004CD0981DC0005CF05FFA3BA3D3E90023AB
:1072F0005CF0C4FA804620688946BEF03EFB5CF034
:1073000043FA0B460246494640465CF0E1FB5CF01E
:107310004FFD079B184407902020C1F03BFE48B169
:1073200000210122206868F089FE002148F2200037
:10733000C1F01CFE336805AF5A6962BB1020C1F072
:1073400029FE00B3079B326803F5FA73117E079399
:10735000264B997026490978D970917900972A4669
:107360002068BEF00BF978B34FF48050C1F006FFEF
:107370009EF0CCF828E00798C030A9E707980633BC
:1073800000EB4310C7E731683B462A4689792068FD
:10739000BEF0DEF8E7E7196916480A440021ADF8A7
:1073A0001010962181809979CDE90007A2F59B7292
:1073B000039220682A4603ABBEF0EBF80028D3D135
:1073C00001214020C1F0D2FD09B0BDE8F08300BF2B
:1073D0000000000060E366410000000080842E4150
:1073E000FC8801204888012020A107002474022085
:1073F000C97C0220187402207FB50120C1F0CAFDAB
:107400000546002840F0C980674B684C1A889B7875
:10741000674E8DF80A30674BADF80820236041F6BF
:107420000B233060B38041F03BFA4FF0FF330393FE
:10743000614B1B6ADB0700D4FEE7604B2A461B88C2
:10744000214623825E4B03A81B68E582A3615D4B46
:1074500025621B8863825C4B1B68E36168F0ACFCAF
:1074600000B1FEE76AF026F900B1FEE7574903983C
:1074700069F058FC00B1FEE702210398BEF050FA13
:1074800000B1FEE75249039869F0F4FE00B1FEE74F
:1074900001210398BEF0BDFE00B1FEE70121039873
:1074A000BEF0CDFE054600B1FEE701463C2249484C
:1074B000B7F0FDFE2B4680220398009504F12401CD
:1074C000BEF0C1FC00B1FEE701210398BEF02CF82C
:1074D000414D0398286000B9FEE731A3D3E90023AA
:1074E000CDE900234FF0FF324FF0FF33BEF0D8FA62
:1074F000014600B1FEE72E4840F096FC0121084607
:10750000C1F034FD286802A968F0F6FD044600B118
:10751000FEE7324B324A98801860324B1A60FF22E5
:107520009880314B83F82820304A98801A60304A7E
:107530006FF06300DA6048F001F833790B2B11D853
:1075400073790A2B0ED92B4B1E603BF035FC20467D
:1075500041F098F9082228681146BEF0BBFA0446AB
:1075600008B1FEE7FEE741F085F9234B10212348DF
:107570001C709EF02AF900B9FEE721491F489EF0D1
:1075800036F900B9FEE710218C201E4A3FF0B8FA08
:1075900000B1FEE71C48A4F000FC04B070BD00BFC1
:1075A0000AE020FFE20300005C480E085888012032
:1075B0005088012045920C080080E00F7EB10E0833
:1075C00084B10E087CB10E0880B10E0807001100CE
:1075D00030480E08088801204888012010EA002061
:1075E00040660220E0E90020B0E90020C0650220EA
:1075F000A0E900204C880120C266022010890120E9
:1076000085C50C08008901209D870D080000000039
:107610002DE9F3411E461C4B044683424FF0000304
:107620008B4115460AD216A3D3E900235CF030FC47
:107630001649144602462846A6F00DFF144B4EF696
:107640006021B4FBF3F203FB1244B4FBF1F34FF4FB
:107650007A7801FB1344B4FBF8F728460D490097EC
:10766000A6F0F9FE46B1284608FB17420A4902B0C7
:10767000BDE8F041A6F0EFBE02B0BDE8F08100BF6A
:10768000005C260500000000FF5B2605E8890E0867
:1076900080EE36009FA30D08EE890E080000000062
:1076A00007B588B10BA3D3E900230949C1E9022337
:1076B000CDE900234FF0FF324FF0FF330869BEF0F1
:1076C000EFF903B05DF804FB00220023EDE700BFF3
:1076D000181101200DD50155200000000348044B6E
:1076E000834202D0034B03B118477047547E0220F7
:1076F000547E022000000000064B0749C91A891079
:1077000048BF0131491003D0044B0BB10148184761
:10771000704700BF547E0220547E0220000000000B
:1077200010B5064C237843B9FFF7D8FF044B13B1CB
:107730000448AFF300800123237010BDB8B30120CB
:1077400000000000BCF30E0808B5054B1BB105494D
:107750000548AFF30080BDE80840FFF7CDBF00BF8C
:1077600000000000B8160120BCF30E08A3F5803A13
:10777000704700BF174B002B08BF134B9D46FFF708
:10778000F5FF00218B460F461348144A121AB7F032
:107790008EFD0E4B002B00D098470D4B002B00D0D8
:1077A00098470020002104000D000D48002802D059
:1077B0000C48B7F014FD5CF0D7FE200029009BF0C8
:1077C00018FD5CF0F5FC00BF0000080000000000A0
:1077D000000000000812002008120020C06E0220E5
:1077E000DFF10B080000000008B5154B4FF4E47200
:1077F00000211846B7F05BFD092203460261426191
:107800001048114A98614FF48061DA6100221962D0
:107810009A625A62DA62C3F8F0000C48C3F8F400C6
:10782000C3F8F8100A49C3F80021C3F8FC20C3F8D4
:10783000042111F8010D98540132102AF9D108BD24
:10784000D016012088D20C08B9B70120B9B30120A5
:10785000A1D20C082DE9F84FDFF88880824698F80D
:1078600000308946532B164601D0FFF7BDFF18277D
:1078700007FB0A87D7F80051D7F8FCB05D452FD930
:10788000D7F8F840D7F8F410641BB44228BF344648
:10789000484629442246B7F0C2FBD7F8F8302544C1
:1078A000AB4208BF0025A144361BABEB050B5E4580
:1078B00028BF5E465EB1182303FB0A83D3F8F41099
:1078C000324629444846B7F0AAFB3444354424B133
:1078D000182303FB0A88C8F800512046BDE8F88F3A
:1078E0000024E2E7D0160120F8B5182700FB077541
:1078F000124B0E461D4407FB0033DB6A1446012B76
:107900000AD0022B14D023B9284674F097F9844288
:1079100008D900242046F8BD284674F08FF9844227
:1079200028BF044622463146284674F090F9F1E714
:107930002846BDE8F84074F0A5B900BFD016012074
:10794000F8B50B4B04461B780D46532B164601D059
:10795000FFF74AFFEFF311874FF0200181F3118801
:10796000324629462046FFF7BFFF87F31188F8BD4E
:10797000D01601202DE9F041164C1E46237805460D
:10798000532B8846174601D0FFF72EFF082D1DD830
:10799000EFF3118C4FF0200181F3118865B11820AD
:1079A00005FB000344F80380E2180023576000FB46
:1079B0000542166293625362182303FB0544069B3B
:1079C000E3628CF311880020BDE8F0814FF0FF30B6
:1079D000FAE700BFD01601202DE9F843174E1F46E5
:1079E00033780546532B8946904601D0FFF7FCFEBD
:1079F000082D1FD8EFF311824FF0200181F3118879
:107A00006DB11824002304FB0564C4F8F090C4F899
:107A1000F480C4F8F870C4F80031C4F8FC301823BE
:107A200003FB0566089BC6F8043182F31188002029
:107A3000BDE8F8834FF0FF30FAE700BFD016012011
:107A4000024B1B780BB1002303737047BABB0120B4
:107A5000014880F000BE00BFE037012048F2040278
:107A600010B5038893420DD006D803F5FF437F334A
:107A70009BB2012B0AD910BD48F212029342FAD1EF
:107A80000F4A0CE0027A0F4B1A70F4E790F90830B5
:107A9000012B03D090F90930012BECD10A4A0221C5
:107AA000212090F097FE91F06AFD036840F6B8310E
:107AB0005C69064AA446BDE810400023604700BF49
:107AC000CAD20C08BABB0120A2D20C0813BD070809
:107AD00008B593F037F928F05BFF28F08BFF0948D1
:107AE0002CF0A8F900224FF46171074885F03DFDA4
:107AF00030B1BDE8084001212120044A90F06ABE5F
:107B000008BD00BFC0B4002018A0002006D30C0898
:107B100010B50A200C46104A1021C5F013F90F4B7E
:107B2000186040B9212001210D4A90F053FE40F227
:107B3000017074F07AFA20460A4A0849C4F0C3FD7D
:107B400040B921200121084A90F044FE40F2027021
:107B500074F06BFA002010BD7CD60C087C19012053
:107B600034D30C0858D60C0857D30C0810B5054B65
:107B7000054C1870204692F0C0FE2046BDE810402B
:107B800092F013BFBABB0120C0B40020024B1868AA
:107B900008B100F0C7BA7047A818012008B5094B12
:107BA0001868C4F031FF01300AD121200121064AB2
:107BB00090F010FEBDE8084040F2067074F035BA4F
:107BC00008BD00BF8419012071D30C08014608B517
:107BD0004FF47A7200238002890D5CF059F9094B49
:107BE00001461868C4F0F4FE50B121200121064A74
:107BF00090F0F0FDBDE8084040F2057074F015BA51
:107C000008BD00BF8419012089D30C0808B5094BB1
:107C10000A211868C4F0DCFE50B121200121064A77
:107C200090F0D8FDBDE8084040F2057074F0FDB951
:107C300008BD00BF80190120A2D30C0808B5094A6D
:107C400040F6B8330221212090F0C4FD40F6B83050
:107C5000FFF7BCFF0122044B1A70BDE80840FFF794
:107C6000D5BF00BFBAD30C08B9BB012008B50221AB
:107C70001D20034A90F0AEFDBDE80840FFF7C6BFE7
:107C8000F9D30C0870B52A4D037D04462B70837D13
:107C900023B103212120274A90F09CFDFFF7B6FF76
:107CA0002B78FE2B22D0FF2B30D00B2B37D80B2B71
:107CB00035D8DFE803F00612063434343434343473
:107CC000341291F05CFC036841F288315D6923460F
:107CD000194AAC46BDE87040604791F050FC03681B
:107CE00042F210715D69144A2346F2E791F047FCB5
:107CF000036822465B6A1049984791F040FC03688C
:107D00004FF47A715D690C4A2346E2E791F037FC43
:107D100003682246BDE870405B6A07491847FF23A5
:107D20002B700221BDE870401D20044A90F052BD26
:107D3000B27C022009D40C08B57D00083CD40C08A4
:107D400008B5094B1868C4F05FFE01300AD1212044
:107D50000121064A90F03EFDBDE8084040F2067061
:107D600074F063B908BD00BF80190120A2D30C08CC
:107D700008B5FFF713FFFFF7E3FF064B1A7842B190
:107D800000221A700221BDE808402120024A90F02A
:107D900021BD08BDB9BB012051D40C0808B5022192
:107DA0001D20034A90F016FDBDE80840FFF7C8BF4C
:107DB00072D40C0808B5064A02211D2090F00AFD75
:107DC000FF22044B1A70BDE80840FFF7B9BF00BF9F
:107DD00081D40C08B27C022008B5094B0146186812
:107DE00058B100231822C4F0EDFF40B1054A01212B
:107DF000BDE80840212090F0EDBC034AF7E708BD3C
:107E00007C1901209BD40C08C8D40C081FB5022390
:107E1000ADF80030044B019068460293FFF7DCFF99
:107E200005B05DF804FB00BF597E00088B6808466A
:107E300003B1184702212120014A90F0CBBC00BFBA
:107E4000E9D40C080022024902482DF055B800BFC1
:107E5000D5800008F0C3002008B50388022B0CD1A0
:107E6000064B1B781BB9BDE80840FFF7E7BEFFF7DC
:107E700067FFBDE80840FFF7E5BF08BDB9BB0120BB
:107E80000022024902482DF037B800BFD17A00081D
:107E9000F0C3002010B5A4B003AB0193812301AC63
:107EA00002935DF021FD21465EF030FA28B994E896
:107EB000030033F0E7FA24B010BD01212120024A6B
:107EC00090F088FCF7E700BF19D50C0838B50379A6
:107ED000012B05D1BDE8384040F6B830FFF776BE3B
:107EE000174B1C781CB1BDE83840FFF741BFFFF7C6
:107EF00055FE144B1D78BDB9134893F003F82A467C
:107F00004FF46171114885F030FB04460E4892F041
:107F1000FEFF24B1012121200D4A90F05BFCBDE859
:107F200038400020FFF7B6BF02212120094A90F017
:107F300051FC2246084904482CF0DEFFEFE700BF61
:107F4000B9BB0120BABB0120F0C3002018A000205B
:107F500006D30C0831D50C08517A000800230246DC
:107F6000194610B504462348C1F0A6FC224B186000
:107F700040B921200121214A90F02CFC40F20470EC
:107F800074F053F80023224601211D48C1F094FCEF
:107F90001C4B186040B9212001211B4A90F01AFCAB
:107FA00040F2047074F041F802212120174B184A66
:107FB00090F010FC0221174A0123212090F00AFCC6
:107FC0002DF0A4FB0368DB6F98470120FFF762FFE9
:107FD00001F0ECF900221049104892F059FF1048C6
:107FE00092F0D5FC0F4B10491870104888F055FCE2
:107FF00010BD00BF0D7E0008841901206FD50C084C
:1080000041BD07088019012089D50C0892620D082E
:10801000A3D50C08C7D50C085D7A0008F0C3002072
:10802000C0B40020BABB01209C180120B0990020E8
:1080300038B50546FFF792FF044638B108482CF0E2
:108040001DFC204673F0F1FF204638BD2B68284602
:108050009B68984704460028F6D00248EFE700BF27
:10806000E4D50C08F6D50C087FB5114B002401931C
:108070000223104E104D00930121104B3046CDE9E4
:1080800002440F4A06F03AFE2A4630460D49B6F041
:10809000ACF92A460C480D4B0D4903603033C0E95A
:1080A0000244436004B0BDE87040B6F09EB900BF22
:1080B000857C0008AC180120DC7002209D7D000842
:1080C0006D7C000831ED00089818012010D60C08CE
:1080D0000DBD070810B50121094892F0ADFE20B191
:1080E0005DF002FC0121B7F023FA06482CF05CFE9B
:1080F0002DF00CFBBDE8104003689B6F184700BFD4
:10810000D4460120F0C3002010B50446017804488D
:108110002CF02CFDA37883F00103A37010BD00BFE9
:10812000D446012073B503690446E3B14369D3B172
:108130000E4B684619680B681B699847D4E90423FD
:10814000DDE90065A178002918BF1346D4E90212C1
:108150005B1842F10002B342AA4104D22046FFF765
:10816000D3FFC4E9026502B070BD00BF9C7302205A
:10817000014892F00DBD00BFC0B40020014892F04C
:1081800009BD00BFC0B4002038B50546084B044601
:1081900045F8043B83689D4201D0B6F04DFF284668
:1081A00073F000FE284673F0F5FD204638BD00BF91
:1081B00010D80C08044A08B5836802602432426073
:1081C0000BB1B6F039FF08BDCCD70C08A0F1040004
:1081D000F0E700BF10B50446054B0360443343602D
:1081E00017F0C8FD2046FFF7E5FF204610BD00BF91
:1081F000B8580D08A0F10400ECE700BF10B5044624
:10820000074B03F14802036068334260C0F84C3307
:1082100017F0B0FD2046FFF7DDFF204610BD00BF80
:1082200058590D08A0F10400E8E7A0F55370E5E700
:1082300070B5104B044603F120020360C26003F1E5
:1082400034024833436143680261051D23B18368EA
:1082500013B1284673F0A6FD04F1300630467DF0D8
:10826000A4FD304673F096FD284673F093FD20463A
:1082700070BD00BFBC000D08A0F11000D8E7A0F150
:108280000C00D5E7A0F11400D2E700BF10B50446FA
:10829000034B40F8183BFFF7CBFF204610BD00BF53
:1082A00038FE0C081F2008B502210C4A90F092FA03
:1082B0000B482BF0B9FD78B9042109482BF0D0F90F
:1082C00050B9084878F031F81F200221064A90F092
:1082D00081FA034892F05AFC08BD00BF94D60C08FE
:1082E000C0B4002070150020B2D60C08F7B50025E8
:1082F000214F2248224B3A462249234CC0E90155DE
:108300000360C560057445610583B6F06EF83123DE
:108310002646694620460193009517F01BFF1B4B2C
:10832000294646F8D03B324604F1180007F0ACFF6E
:10833000174B2946C4F8D030164BFF2204F1E40055
:10834000C4E93636C4E9324584F8E050B6F0AFFFF0
:1083500041F20A433A4620460F4984F8E351A4F813
:10836000D430B6F042F83A460C490D4803B0BDE8A7
:10837000F040B6F03AB800BFDC7002209819012036
:1083800074EB0D08C12C03087015002038FE0C0892
:1083900020D50D0804D50D088D82000863BD07089F
:1083A00040710220F0B5044685B002211F20994A91
:1083B00090F010FA234602211F20974A90F00AFA03
:1083C000964D02211F20934A90F004FA02211F20AB
:1083D000934A90F0FFF92B784BB928462CF056FEC3
:1083E00000280CBF012300232B7040F00B81214695
:1083F0008C482AF003FA5DF077FA0546B7F080F86A
:10840000002840F0FF80281D27F0DEFA05F1080063
:1084100027F064FA2846B7F088F8834A834B022194
:10842000002818BF13461F20814A90F0D3F9FFF7A8
:1084300039FF002840F0E6807E4B039001937E4B8D
:108440007E48029392F057FA7D4C039001AB7D4831
:1084500023632CF0ABFB002840F0D4807A4892F0E4
:1084600051FD7A4ED6E8AF3FDA070BD430469BF089
:1084700042FB38B1764A77497748B5F0B6FF3046C7
:108480009BF03EFB754FD7E8AF3F13F0010F744EE2
:108490001FD138469BF02FFBD8B16F49304617F0FB
:1084A000CDFC704B304603F1480233606833726094
:1084B000C6F84C33002200236B49C6E9D423C6E931
:1084C000D623C6E9D823624AB5F08FFF38469BF021
:1084D00017FB2664654ED6E8AF3FDB070BD430466A
:1084E0009BF009FB38B15A4A61496248B5F07DFFFB
:1084F00030469BF005FB5F4E05F110015E4D3046A6
:1085000073F0D2FD284666632AF0E4FB2369A56375
:108510001BB95A4B5A4A23615A60E36B26694BBB1D
:10852000584D6B68002B6CD105F1140073F090FC72
:1085300005F11C0073F08CFCEB6803B92B7295F805
:108540003430514823F0050385F8343073F080FC53
:108550004E4873F07DFC95F834304D4823F01803F5
:1085600085F8343073F074FC00236E602B7285F84C
:108570003430E563236C0BB9464B2364464D474BBF
:1085800028462169636289F019FC636A28462B61D9
:1085900088F0F2FD002835D122692562002A33D007
:1085A0003F4B404D5A60636102F0E4FC3E4B0221B8
:1085B000A0623E4A2120E36290F00CF9284621692E
:1085C0001AF016F9F0B9636CA5610BB9384B636406
:1085D00020698CF01FFE374BA06419493648236090
:1085E00019F02AFC0446184892F091FC3CB9334833
:1085F0002CF044F914482CF0BFFC044630B120465E
:1086000000E0032005B0F0BD2F20FBE700F0C4F828
:10861000F5E700BFDCD60C080FD70C08E8C3002034
:108620001BD70C087C460120CBD60C08D3D60C08EF
:108630002BD70C08718100087D810008C0B4002090
:10864000F4700220D4460120F0C3002090190120CC
:10865000DC70022065BD0708F07002208C19012033
:108660000812002058590D08FD81000888190120C2
:1086700089810008E0700220981901200C72022004
:1086800065640220983A0120BC3A0120C43A0120D6
:10869000A43A0120607000202C380120EC710220E7
:1086A00024380120E8370120F07102203DD70C0862
:1086B000E871022098180120F87300206DD70C088B
:1086C00010B51748FFF76EFE08B173F0AEFC154BFE
:1086D0001548D3F8841490F017FF134827F064F975
:1086E000124892F00FFC5DF0FFF800B10C301EF064
:1086F000C7FE0E4892F00BFC1F2002210C4A90F09E
:1087000069F80C4858F0B8FA08B173F08EFC0A4CBE
:108710002068C4F04CF808B1B6F08EFC206010BDA3
:1087200092D70C08F8A3002040710220F0C300206B
:108730009ED70C08009901209419012010B50A4811
:1087400092F07CFB0021094A0948C3F0BCFF094CA8
:1087500002212060084A1F2090F03CF823680BB9E2
:10876000B6F06AFC10BD00BFD446012020D80C082A
:10877000C186000894190120B0D70C08014825F0E3
:108780001BBC00BF443C0120024B01211868C4F00F
:1087900067B800BFB419012010B50A4825F05EFB88
:1087A000044608B1B6F048FC01F062FB01F0A8FBFA
:1087B0002146054A0548C3F086FF054B186000288E
:1087C000F0D010BD443C01204CD80C087D87000837
:1087D000B419012010B5044601210C20064A8FF07F
:1087E000F9FF0023E068A36020B1BDE810400368F2
:1087F0009B68184710BD00BF70D80C08A0F104009A
:10880000E8E700BF10B50A4CD4E8AF3FDB070DD452
:1088100020469BF070F948B10648074B074A0849C3
:108820000360B5F0E2FD20469BF06AF9014810BDF7
:108830001C1A0120201A012098CC0D08DC7002209F
:1088400093BE070810B504460B4B036064334360C6
:1088500000F50E7034F01AF8636A23B1002204F1B7
:108860001C0062629847236923B1002204F10800CA
:1088700022619847204610BD94150D08A0F1040010
:10888000E0E700BF10B50446034B40F8343B73F0FB
:1088900016FB204610BD00BF480F0D0837B5C06855
:1088A0000D46144638B901210C200E4A8FF092FF74
:1088B000002003B030BD1A682146019200221A60E0
:1088C00001AA0AF0B7F901A873F0F9FAA38823B94D
:1088D000E38813B92378402BEAD02B8943F0400377
:1088E0002B81E5E783D80C08A0F10400D6E700BF90
:1088F000F0B505460C46152003211A4A85B08FF0C5
:1089000069FFAF6817B9032005B0F0BD0023ADF8CB
:1089100008302389267B23B96389022B1ED1142EAC
:1089200002D00123ADF80830606833F005F86368C1
:108930003246039302AB0093A168384603AB25F09F
:10894000EFFE044603A873F0BAFA2CB1A86818B178
:1089500090F06EFA0023AB602046D5E7002BE0D103
:10896000402EDDE7B6D80C0873B516480AF054FB64
:108970001549164AD1F88434154E164D5360A1F5A9
:10898000405133460F4800950AF03EFC124B3361CC
:108990002AF07CFC044602460A4930460BF048FCAB
:1089A000294620462AF004FB40B10C482BF066FF14
:1089B0006D210B4B0B4A0C485CF0CEFA6C6002B098
:1089C00070BD00BF38180020F8A300206871022095
:1089D000487102205817002080510100C7D80C08A8
:1089E000E3D80C08F8D80C0816D90C0870B5002488
:1089F0003248334B334E03606433436000F1080365
:108A0000C0E90233304BC0E90440836100F11C032C
:108A1000C0E907332D4BC0E90940C0E90B342C4BAA
:108A2000C0E90D444364203383640523C0E9204436
:108A3000C0E92244C0E9644480F83C40046480F802
:108A4000744080F89841C0F89C4180F8A04180F8BB
:108A5000B84180F8D04180F8E841C0F81C321D4B85
:108A600032461D491D4DC0F83832C0E98F4480F8A8
:108A70000042C0F8184280F8204280F84442B5F025
:108A8000B4FC324616491748B5F0AFFC32461649D9
:108A90001648B5F0AAFC2846154B6C6040F8103B10
:108AA0002C722CF06BFEC5E93444C5E936443246DD
:108AB0002846BDE870400F49B5F097BC3818002033
:108AC00094150D08DC700220093E010819310108D7
:108AD000A0D90C08341F0E0845880008581700203C
:108AE000A7BE070868710220A9BE070848710220C6
:108AF000480F0D0885880008012903BF034B00209B
:108B00001B78A62008BF1370704700BF7BD40120DC
:108B1000022938B514461D460FD1202200210848ED
:108B2000B6F0C5FB3CB1202D2A46214628BF2022A5
:108B30000348B6F074FA002038BDA620FCE700BF59
:108B40005BD40120104608B56AB163B102290CD18B
:108B5000202B28BF20231A46029B05491A60B6F035
:108B60005EFA002008BD2F20FCE7A620FAE700BF30
:108B70005BD40120012905D102B11278024B0020FB
:108B80001A707047A62070477BD401202DE9F0436E
:108B90001D46002389B0074608460E461446CDE917
:108BA00005332CF05DFB18B9D82009B0BDE8F0837F
:108BB000304605A92CF020FC0028F6D120462CF0E8
:108BC0004FFB0028F0D0204606A92CF015FC002809
:108BD000EBD1DDE90586079007A912482CF00CFCC3
:108BE0000446D8B9079B18EB030902D10EB1B6F0C1
:108BF00023FA009302213B461F20CDE901860A4A51
:108C00008FF0E8FD6B689E420AD8324649462868D4
:108C1000B6F033FB6B689E42E9D86E602046C4E72D
:108C20001924FBE72172080010DA0C0801482CF027
:108C300033BD00BF00720800002307B5034801934D
:108C400001AB2CF02DFC03B05DF804FB00720800B2
:108C500001482CF0DDBC00BF0C72080010B50648BE
:108C60000C462CF09DFB40F20123984202BF4FF6C8
:108C7000F1732380002010BD0C72080001482CF015
:108C80000BBD00BF0D72080073B5002601AB0C4888
:108C90000C46154601962CF003FC40F20123984245
:108CA00008D14CB1062D09D920462946054A73F052
:108CB00047F9304602B070BD0B20FBE71920F9E7F9
:108CC0000D7208002EDA0C0801482CF0A1BC00BF80
:108CD0000B72080010B506480C462CF061FB40F200
:108CE0000123984202BF48F204032380002010BDF4
:108CF0000B72080001482CF0CFBC00BF0E720800B8
:108D000073B5002601AB0C480C46154601962CF0B5
:108D1000C7FB40F20123984208D14CB1062D09D976
:108D200020462946054A73F00BF9304602B070BD63
:108D30000B20FBE71920F9E70E72080035DA0C0862
:108D400001482CF0A9BC00BF10720800002307B531
:108D50000348019301AB2CF0A3FB03B05DF804FBC7
:108D60001072080001482CF097BC00BF1172080077
:108D7000002307B50348019301AB2CF091FB03B02E
:108D80005DF804FB1172080001482CF085BC00BF9F
:108D900012720800002307B50348019301AB2CF0C1
:108DA0007FFB03B05DF804FB1272080001482CF051
:108DB0002FBC00BF1872080010B506480C462CF0F6
:108DC000EFFA40F20123984202BF012323800020E2
:108DD00010BD00BF1872080001482CF05DBC00BF38
:108DE0000F72080073B5002601AB0C480C461546FF
:108DF00001962CF055FB40F20123984208D14CB16A
:108E00000C2D09D920462946054A73F099F83046B9
:108E100002B070BD0B20FBE71920F9E70F720800C4
:108E20003FDA0C0801482CF037BC00BF0472080080
:108E300001482CF035BB00BF0472080001482CF03B
:108E40004DBC00BF1F72080007B50020009003480A
:108E50002CF07CFB03B05DF804FB00BF1F72080020
:108E600001482CF019BC00BF1972080073B5002628
:108E700001AB0C480C46154601962CF011FB40F254
:108E80000123984208D14CB1012D09D92046294629
:108E9000054A73F055F8304602B070BD0B20FBE771
:108EA0001920F9E71972080092620D0801482CF0A8
:108EB000AFBB00BF0772080013B510480C462CF07A
:108EC0006FFA40F201229042034604D14FF47063DE
:108ED000238000230FE070B92388B3F5805FF8D3B7
:108EE0004FF4CD732F240121CDE90034044A054B02
:108EF0008FF070FC2346184602B010BD07720800C0
:108F00006CDA0C084CDA0C0801482CF099BB00BF55
:108F10000872080010B506480C462CF06DFA40F2B5
:108F20000123984202BF4FF47A732360002010BDE2
:108F30000872080001482CF0AFBB00BF097208009E
:108F400001482CF0ADBA00BF0972080001482CF0AE
:108F5000A3BB00BF0A72080001482CF0A1BA00BFF1
:108F60000A7208000B4610B5084A0C460848094921
:108F7000FFF70CFED82807D11EF02AFB0368214614
:108F8000BDE810409B68184710BD00BF277208005D
:108F90007DDA0C08267208000B4610B5084A0C460C
:108FA00008480949FFF7F2FDD82807D11EF010FB49
:108FB00003682146BDE810405B69184710BD00BF3B
:108FC0002572080099DA0C08247208000B4610B5C7
:108FD000084A0C4608480949FFF7D8FDD82807D1A8
:108FE0001EF0F6FA03682146BDE810401B691847D9
:108FF00010BD00BF23720800BFDA0C0822720800FF
:10900000022307B501A8D1E9001201935CF08EFBA1
:1090100018B9019902482CF013FB03B05DF804FB6A
:10902000207208001FB5022003900698009003A844
:109030005CF094FB18B9039902482CF001FB05B0D1
:109040005DF804FB20720800002370B5164886B056
:109050000D46164604932CF003F9E8B1124804A912
:109060002CF0CAF9B0B9049B3246002B08BF02238A
:10907000294605A805935CF0D9FB04460290736865
:109080001F2001936B6802210093084A049B8FF014
:10909000A1FB204606B070BD1EF09AFA0368324666
:1090A00029469B699847E8E720720800D8DA0C083F
:1090B00001482CF0C5BA00BF2172080001482CF00D
:1090C0009BB900BF2172080001482CF0E5BA00BF2F
:1090D0002972080001482CF0E3B900BF297208008A
:1090E00001482CF0FBBA00BF0572080007B500204C
:1090F000009003482CF02AFA03B05DF804FB00BF8F
:109100000572080001482CF06BBA00BF28720800F5
:1091100001482CF019B900BF2872080008B54A6848
:10912000102A01D02F2008BD096802482CF0D6FA79
:10913000F9E700BF177208000023F0B54A688DB048
:109140000F2A0C46029302D819200DB0F0BD0093EF
:10915000102202AB096819482CF0F8F940F20123FB
:10916000984223D103AA1646154B03F12007154652
:1091700018685968083303C5BB422A46F7D11B78E3
:1091800020212B703046102322688FF0B1FA10286E
:109190000BD0002162682068B6F089F81F200121F9
:1091A000084A8FF017FBAC20CFE7002063680F2B35
:1091B00001D8B5F041FF10236360C6E717720800BD
:1091C0004FDB0C0823DB0C080020094B10B518609E
:1091D00032B9084C2146BDE8104007482CF030BA9F
:1091E000A1F5005105488C1891F039FEF2E700BF57
:1091F000241A012000E0170821720800D44601203B
:1092000000232DE9F04F85B080460F462C4803A976
:10921000154603932CF0F0F8002838D1294E039915
:1092200033681BB9284891F0F9FD80BBD5E90014DB
:109230003368039A02EB030B14F003031BD10A46B5
:1092400023465946204891F0EFFD00BB4046316867
:109250002CF0F6F9D8B9384669682CF0F1F9B0B9B4
:1092600032686B680020134413F03F021CBF403388
:109270009B1A33600BE004F1040AAAEB030A504680
:10928000019127F0D1F80199814618B9AC2005B0B9
:10929000BDE8F08F2246B5F0C2FEAAEB0402FF2122
:1092A00009EB0400B6F003F853464A46594606480F
:1092B00091F0BAFD0446484627F0DAF82046C4E7A4
:1092C00021720800241A0120D446012008B50A465C
:1092D00002480349FFF794FF08BD00BF227208004F
:1092E0002372080008B50A4602480349FFF788FFC1
:1092F00008BD00BF247208002572080008B50A46A0
:1093000002480349FFF77CFF08BD00BF2672080032
:109310002772080008B50022024903488EF0F1FECA
:10932000002008BDC5D90208301B012008B5002265
:10933000024903488EF0E5FE002008BDC5D90208A9
:10934000281A012001487FF09EB900BFE0370120B4
:109350000022024902482BF0CFBD00BF4593000810
:10936000F0C300200022024902482BF0C5BD00BF17
:1093700079930008F0C3002001487FF07EB900BF58
:10938000E03701200A4608B9FFF7C4BF014601488B
:109390008EF0D8BE301B01200A4608B9FFF7C6BFC1
:1093A000014601488EF0CEBE281A012008B50222DF
:1093B0000749084824F030FD03220749074824F0F4
:1093C0002BFDBDE8084001220549064824F024BDD4
:1093D0006CDC0C08301B012048DC0C08281A01202A
:1093E0003CDC0C08443C01200123034A82F8043190
:1093F000024A82F804317047301B0120281A0120EC
:109400000021044600B589B01A2201A80091B5F0E8
:109410004EFF2346074A1E2168465BF0BDFE6946A3
:1094200005482BF02BFA684600F008F8C1F016FC4E
:10943000B5F002FE84DC0C089ADC0C08F0B59FB095
:109440000446342168461AF035FBBDF80220BDF809
:1094500000309A422ED00027C2F070F902AD0523E9
:10946000002215A9C1F02AFF082216992846B5F056
:10947000FCFD28468DF81070B5F066FE0126179B9E
:10948000CDE90F502046CDE90C378DF83860B5F0A6
:109490005BFE8DF84460CDE9124090F070F8064B09
:1094A00005A905930CAB069332F02CF94FF48060BC
:1094B000C3F080FA1FB0F0BD31C007082DE9F04FAE
:1094C0000446D0E90098D0E90276374A87B0936A1B
:1094D000012105930369D2F82CB0D2F834A0956B22
:1094E00001934369314A029383690393C36900205E
:1094F00004938FF06FF901210020059B2C4A8FF017
:1095000069F95B46012100202A4A8FF063F953462E
:1095100001210020284A8FF05DF92B46012100200F
:10952000264A8FF057F92B4601210020234A8FF05D
:1095300051F9234601210020214A8FF04BF94B4677
:10954000012100201F4A8FF045F9434601210020E8
:109550001D4A8FF03FF93B46012100201B4A8FF046
:1095600039F9334601210020194A8FF033F90121DE
:109570000020019B174A8FF02DF901210020029B4A
:10958000154A8FF027F901210020039B134A8FF021
:1095900021F901210020049B114A8FF01BF900F0F2
:1095A000AFFAC3F0E6FCFEE700ED00E0FBDC0C08E0
:1095B00006DD0C081ADD0C082EDD0C0842DD0C0857
:1095C00056DD0C086ADD0C087EDD0C0892DD0C0807
:1095D000A6DD0C08BADD0C08CEDD0C08E2DD0C08B7
:1095E000F6DD0C08012108B5084A094B00208FF070
:1095F000F1F800F085FA0648FFF720FFC3F0B9FC48
:10960000044905485AF0D4FFFEE700BFEA6A0E0895
:109610000ADE0C08CBDC0C08E2DC0C0800240D464A
:1096200000B59BB06022214602A80194B5F03FFE30
:109630002B4664210A4A01A85BF0AEFD0121094ACC
:1096400001AB20468FF0C6F800F05AFA01A8FFF7E8
:10965000F5FEC3F08EFC044904485AF0A9FFFEE76A
:109660002DDE0C08EA6A0E08CBDC0C08E2DC0C08E4
:10967000034B0360034B0B604FF4A0731360704700
:109680009C3101209C2C0120034B0360034B0B6099
:109690004FF4806313607047382C0120381C012080
:1096A00000240D4600B59BB06022214602A801941B
:1096B000B5F0FDFD2B466421084A01A85BF06CFD66
:1096C00001212046064A01AB8FF084F800F018FA19
:1096D00001A8FFF7B3FEB5F0AFFC00BF40DE0C08F9
:1096E000EA6A0E08002310B586B0CDE90233CDE951
:1096F000043302AB00931023C0680C46019368B199
:10970000036869469B68984740B1012122F038F907
:10971000012103460A4A1F208FF05CF8019A636812
:109720009A4209D152B121680098B5F096FDB0FA7D
:1097300080F0400906B010BD0020FBE70120F9E7EA
:1097400050DE0C08024B01211868C3F089B800BF35
:10975000C43201200D4BD9889A8889B292B29142C5
:1097600011D0D9889A8889B292B291423DBF9A8825
:10977000D8881B89D8882DBF9B8813FA80F0801A5F
:10978000C01A80B270470020704700BF003201202D
:10979000F8B50E46074608B9B5F04EFC154D2C89B4
:1097A0008C42F9D3FFF7D6FF201A80B286421BD82D
:1097B000EB88E888E41AA4B2A6422B6815D92246A1
:1097C000394613FA80F0B5F02AFC2868321B3919A3
:1097D000B5F025FCEB8816FA83F12B89B1FBF3F287
:1097E00003FB121189B2E980F8BD3246394613FAFB
:1097F00080F0EDE7003201200023F0B5194EC3B030
:10980000194FADF806314FF0FF330022306801A93F
:10981000C3F00CFB04460028F5D1C2F0C0FB0121C7
:1098200005460846BEF0B6FD2846C2F0B3FB0F4B16
:10983000BDF8062101A9386837F068FB4FF0FF3208
:1098400021460120C3F04DF8C2F0A9FB0546214690
:109850000120BEF09FFD2846C2F09CFB2346224615
:10986000D4E700BF5C3201201C7602204597000837
:109870002DE9F843DFF850801E46B8F800901546F1
:10988000A3EB09070D4BFFB21C89FFF763FF241AF6
:10989000A4B2A74207D8394605EB0900FFF778FFC5
:1098A0000023A8F80030064832462946054B0068D8
:1098B00037F07AFABDE8F843FEF766BF00320120C0
:1098C0001C7602207198000820B1012070B5204E4E
:1098D0003468002C3BD14FF482711E4A7D20C3F0C6
:1098E00031FA1D4D1D4A286021461D48C2F0EBFE8D
:1098F0001C4B1D4A9C801A604FF4807230601A81A4
:10990000DC8008B9B5F098FB2B68002BFAD0174C17
:109910008022174B1749206837F046FA8022144BF3
:109920001549206837F040FA0B203DF001F80B2074
:109930003CF0B8FF1422114B0521DA640422A3F590
:1099400080531A650E48BDE8704097F0A8B970BD05
:10995000C432012094DE0C085C320120B4DE0C0815
:10996000F9970008003201207CD401201C760220E7
:1099700071980008F0580220705802200020015B06
:109980000000015B08B5FEF7FFFE0421034B03F561
:1099900000521165D164DB6C08BD00BF0000015BA3
:1099A00070B50C460546C2B018B94FF0FF3042B052
:1099B00070BD4B1EB3F5817FF7D20B4E33680BB9E8
:1099C000FFF784FF2246294601A8B5F028FB4FF097
:1099D000FF331822306801A9ADF80641C3F0F2F94F
:1099E0000028E2D120B2E2E75C32012030B50C461B
:1099F000C3B0014618B94FF0FF3043B030BD631E0D
:109A0000FF2BF8D801AD22462846B5F008FB084BDD
:109A100008481B8818222B53A31CADF80631294691
:109A200000230068C3F0CEF90028E4D120B2E4E7B7
:109A3000C5BC0D085C3201200422F0B52C4B0C464D
:109A4000074685B01A6500284FD000294DD0FFF792
:109A500081FEA04219D2C2F0B5FA05462548264E2D
:109A600003AB01A9006802AA97F06CF83388029949
:109A70008B4207D20198C91A184489B2FFF788FEB1
:109A8000029B33802846C2F098FA1C4D2E89B442BE
:109A900001D9B5F0D1FAFFF75DFEA04228BF2046FC
:109AA000AB8884B2F61AB6B2A6422B68A98817D240
:109AB000324613FA81F13846B5F0B1FA2968A21B93
:109AC000B819B5F0ACFAAB882A8914FA83F3B3FB62
:109AD000F2F102FB11339BB2AB8020B205B0F0BDB6
:109AE0002246384613FA81F1EBE74FF0FF30F5E7F5
:109AF0000010015B1C76022020B101200032012001
:109B0000002330B50A4CC3B00A4DADF8063100232E
:109B100020681A4601A9C3F089F908B143B030BDE5
:109B2000BDF80621286801A936F062FFEFE700BF03
:109B30005C3201201C76022008B5082026F074FC57
:109B400018B100234360014B036008BD20DF0C08FF
:109B500008B5082026F068FC18B100234360014BCB
:109B6000036008BD3CDF0C08436843B9054B0B603C
:109B700005234B6043680133436001207047002098
:109B8000704700BFD8DE0C08042370B51446456842
:109B90008AB0ADF802302B680A4601A805499E68D4
:109BA00072F0CFFA224628460DF1020301A9B04710
:109BB0000AB070BDDEDE0C0830B54468134622687A
:109BC0008BB0156901A80A46034972F0BAFA20461B
:109BD00001A9A8470BB030BDEBDE0C0830B58DB045
:109BE0004468019223680A4603A80649DD6872F0BA
:109BF000A8FA042320460DEB030203A9A8470DB0E1
:109C000030BD00BFDEDE0C08F0B5A3B0064617A8D5
:109C10001F460C4615468DF0B1FA2A2217A80CA94A
:109C20008DF0BFFA0DF10B03019315234FF48072F1
:109C3000009317A800238DF0D1FC50BB97E80300D8
:109C4000154B8DE80300D3E9002317A88DF09EFD86
:109C5000F8B9D7E90201114B8DE80300D3E90023DD
:109C600017A88DF093FDA0B99DF90B1017A88DF0E2
:109C7000EAFC70B97668224633680949DF6803A8B0
:109C80002B4672F05EFA3046BDF874300CAA03A978
:109C9000B84723B0F0BD00BF88DF0C0880DF0C0898
:109CA000EBDE0C0813B5044608460A4B1146C4E91E
:109CB00000300023C4E903330193036822815B6A07
:109CC00001AA984710B9019BC4E90303204602B0DA
:109CD00010BD00BF04DF0C082DE9F041D0E90332CC
:109CE000934204460D469EB003D300201EB0BDE84B
:109CF000F0812A2642683B495768ADF802603A680D
:109D0000D2F80880028910A872F01BFA38460DF1CB
:109D1000020305AA10A9C0470028E6D110A88CF0BC
:109D200070FD324605A910A88CF0AEFD4FF480728C
:109D30000023152110A88DF040F90028D5D10DF190
:109D4000010110A88CF073FF0028CED1264BCDE97D
:109D50000100D3E90023CDE9030010A88DF020F91C
:109D60000028C2D101AE314610A88DF023F800289A
:109D7000BBD11E4B10A8D3E900238DF011F90028A8
:109D8000B3D10DF10C08414610A88DF013F800284E
:109D9000ABD110A88DF0F9F80028A6D19DF90110DB
:109DA00010A88DF09EF800289FD196E8060004F1D7
:109DB000140704F12506384672F0E9F998E8060020
:109DC000304672F0E4F93846B5F0BEF9C5E90070E6
:109DD0003046B5F0B9F9C5E90260E3680120013306
:109DE000E36083E7EBDE0C0888DF0C0880DF0C08FB
:109DF000F8B505460E460024094FAC4206DB24F0B8
:109E00006BF908498EF007FA0020F8BD24F064F9D8
:109E100056F8242039468EF0FEF90134EDE700BFF4
:109E2000DA7E0E0892DF0C08F8B505460E460024CF
:109E3000064FAC4201DB0020F8BD56F824303A460C
:109E400002211C208EF0C6FC0134F2E7EA6A0E08FB
:109E500010B524F041F904468AF0C9FC03490246D2
:109E600020468EF0D8F9002010BD00BF90DF0C080E
:109E700003220249024823F0CFBF00BFE4DF0C08F1
:109E8000443C01202DE9F04700240646E0B0884616
:109E90004FF4BE72214601A80094B5F008FAA6421C
:109EA00028DD6D464FF0200958F824A05046B5F043
:109EB0004BF960AB2F189F4202461DD228465146EF
:109EC000B5F0D3F87D1C60AB9D4204F101042CBFBA
:109ED0003D4687F80090A642E6D1084890F058FE2B
:109EE000684699F096FE054890F054FE002060B058
:109EF000BDE8F0872F20FAE71920F8E7C0B400206A
:109F000001220249024823F087BF00BF30E00C085D
:109F1000443C01200122024B83F80421704700BF1A
:109F2000C832012010B50446034B40F8083B32F01C
:109F300069F8204610BD00BF84E30C0810B5044644
:109F4000034B40F80C3BFFF7EDFF204610BD00BF70
:109F5000A8E30C0870B5836B05460C4643B1134B60
:109F60002420002918BF0B46114A03218EF032FC31
:109F70002B6821465B6C28469847AB6B064653B16D
:109F8000A0280AD1094B0B4A002C18BF23460321F5
:109F900024208EF01FFC304670BD9F28FBD1034B60
:109FA000054A002C18BF2346F1E700BF3CE00C082F
:109FB00043E00C0886E00C08D0E00C082DE9F041E5
:109FC0001F46836B0546012B0C46164608D9154BD8
:109FD0002420002918BF0B46134A03218EF0FAFBF8
:109FE0002B683246D3F83C8021463B462846C04782
:109FF000AB6B0646012B0AD9A0280BD1094B0B4AA3
:10A00000002C18BF2346032124208EF0E3FB3046AA
:10A01000BDE8F0819F28FAD1024B054A002C18BFF9
:10A020002346F0E73CE00C0820E10C085DE10C0859
:10A03000A4E10C0810B50446054B036000F5CF60A1
:10A040008FF084F923690BB1B4F0F6FF204610BD00
:10A0500078D00D082DE9F3411E46836B05460C466A
:10A06000174633B10B46242003210F4A00968EF089
:10A07000B1FB2B683A46D3F8408021463346284648
:10A08000C047AB6B0646012B0AD99F2808D1074B66
:10A090000321002C18BF23462420054A8EF09AFB8A
:10A0A000304602B0BDE8F081F1E10C083CE00C085C
:10A0B00040E20C0870B504460B4B00F5387503F10F
:10A0C0002C0203604C334260836000F11006B542FD
:10A0D00007D055F8080C283D0028F8D031F0BCFC1A
:10A0E000F5E7204670BD00BF2C0D0E08A0F104005E
:10A0F000E0E7A0F10800DDE70022002310B5C0E989
:10A100000023C0E90223C0E904230D4B04460021CB
:10A11000836121226030B5F0CAF84FF6FF72002348
:10A12000A4F882204FF48072204684F88130A4F88D
:10A130008420C4F8883072F003F9204610BD00BFB7
:10A140008CE80D0800F1080373B504460D46036062
:10A1500011B91048B4F001FB0846B4F0F5FF0F2820
:10A1600005EB0006019007D90022204601A958F00E
:10A17000CBFF019B2060A360324629462068B4F0E3
:10A180003AFB00212046019B22686360D15402B053
:10A1900070BD00BF8DE20C0810B50446044B03608F
:10A1A000406A72F067F8E06872F05DF9204610BD11
:10A1B00034E30C0870B5164605460C468CB01146C3
:10A1C000684672F0A2F82946304672F024F8641B03
:10A1D0000A4BE4105C43694606A872F096F82246E2
:10A1E000002106AB284672F07EF906A8B4F0C6FA44
:10A1F0006846B4F0C3FA0CB070BD00BFABAAAAAAFF
:10A200002DE9F04F4FF0180B044617460E468DB05F
:10A2100000EB0B08351BB5F5C07F22DD3F4BED1081
:10A220005D4367BB4FF01808AF1E7F10684608FB00
:10A23000074172F06AF8694606A872F066F820468F
:10A240002A46394606AB72F04EF906A8B4F096FAE3
:10A2500057B96846B4F092FA331B182BA6F11806CA
:10A2600007DC0DB0BDE8F08F6846013FB4F086FA18
:10A27000DCE7324631462046FFF79CFFECE76D10E5
:10A280000BFB05454046294672F028F9A6F118094E
:10A29000C246494660B1284672F020F908B1294605
:10A2A0000BE04946404672F019F928B1494604E0EE
:10A2B000404672F013F910B341462046B4F0DBFA81
:10A2C00035465046214672F009F9D1460AF1180A7E
:10A2D0000028F6D1A5F1180A5146204672F0FEF882
:10A2E0005546AAF1180A0028F6D1A9450ED3013F18
:10A2F00031463A464846FFF783FF4E468AE74946CD
:10A30000284672F0EBF80028C9D0CFE72946484626
:10A31000B4F0B1FA09F1180AD3E700BFABAAAAAAB0
:10A320002DE9F043884205460E4687B005D0DFF898
:10A33000608000F11804A64202D107B0BDE8F083A6
:10A340002946204672F0CAF804F11807E0B1214608
:10A35000684671F0DAFFB946641BE41008FB04F4A8
:10A36000002C08DC2846694671F055FF6846B4F0B9
:10A3700005FA3C46DFE7A9F13001A9F11809484682
:10A3800071F049FF013CEBE7204672F010F9F0E76D
:10A39000ABAAAAAA2DE9F041036886B09B6A0446DD
:10A3A000984701210346394A24208EF013FA236886
:10A3B00021466846DB6A9847039E002430460DF12B
:10A3C0000408404505D1324B9C4206DD3148B4F0CB
:10A3D000C7F9B4F068F80134F3E7182767431CB1F4
:10A3E000384698F0A5FD0446254646452CD1AC429A
:10A3F00017D0294B2E1BF2105A43B2FA82F2C2F147
:10A400001F02294620465200FFF7FAFEB6F5C07F2C
:10A410002ADD04F5C07631462046FFF781FFB542BC
:10A420001DD12646DFF87480B54222D12646B542BA
:10A4300027D11CB13946204698F08AFD029871F068
:10A4400019FF06B0BDE8F081284606F1100171F051
:10A4500030FF3046B4F027F818350646C5E73046D9
:10A4600072F0A5F81836DAE729462046FFF758FFBC
:10A47000D7E742460121242056F8183B8EF0AAF96E
:10A48000D2E73046B4F07AF91836D0E7BFE20C08CC
:10A4900055555505F0E20C08ABAAAAAA21E30C0811
:10A4A000F8B500253F4C60199035FFF725FEB5F54E
:10A4B000347FF8D100253C48FFF71EFE0026C4E992
:10A4C000D855C4E9DA55A4F87053C4F8745384F825
:10A4D000785384F8805384F88253A4F88453002777
:10A4E0001224324A32492F48B3F07FFF314B324AAF
:10A4F0001A6002F12C014C32C3E902255960103375
:10A50000102218460021B4F0D2FE41F2A4520346B4
:10A51000013CC0E90667057442824561056203F1AA
:10A520002803EDD1214A25492248B3F05EFF244893
:10A5300024F0A8FA1D4A23492148B3F056FF2248C7
:10A5400032F018FB194A21491F48B3F04EFF20484A
:10A55000204B164A2049C0E9014403600473B3F05C
:10A5600044FF1E481E4B114A036000F10803C0E976
:10A5700004331C4900F12003C0E90A330472C460AB
:10A58000846180F820404462046380F8344084632E
:10A59000B3F02BFFBDE8F840044A13491348B3F069
:10A5A00024BF00BF20360020F0380020DC700220DD
:10A5B0009DC30708403300202C0D0E08B5A00008ED
:10A5C000902B002035A00008881A002091CD0308A8
:10A5D0000C340120341F0E088DC80308D03301202D
:10A5E00034E30C0899A100083D9F00087071022017
:10A5F00070B5036805460C4616460BB1032070BDC6
:10A6000002210D20074A8EF0E5F80CB92F20F6E75D
:10A6100023682046DB6898470028F0D1C5E900464A
:10A62000EDE700BFB4E30C082DE9F04F07460068E2
:10A630008BB004680D46646C90461E46A0472D28DA
:10A6400004460ED048B19F4A9F4B0221A52808BF5F
:10A6500013460D209D4A8EF0BDF820460BB0BDE894
:10A66000F08F6B78202B01D10024F6E7984B3868E7
:10A67000029358B103682A461B6C02A99847044606
:10A6800030B1029803689B689847E6E70324F8E72F
:10A690004FF0000A4FF0000B8E4B0393029803A972
:10A6A0000368DB68984730B102210D208A4A8EF09A
:10A6B00091F8A52410E08DF8060003980DF106012D
:10A6C0000368DB689847044630B99DF80630402B94
:10A6D00006D0802B04D0032403A872F077FAD0E7C9
:10A6E0006A789A42DAD1012303988DF8073003681B
:10A6F0000DF107015B69984704460028ECD19DF8ED
:10A700000730082B18D8002BC8D0013B072BC5D821
:10A7100001A252F823F000BF51A7000863A7000868
:10A720009DA600086FA700089DA600089DA600082A
:10A730009DA600088DA70008102BAFD1102E1AD0AF
:10A74000082EABD84FF48B73F340D807A6D512E090
:10A7500006F1FF3CDCF1000343EB0C03002B9DD022
:10A7600009E0731E012B8CBF00230123F6E7042EA2
:10A7700001D0012E92D1002303980493036804A909
:10A780005B6A9847814648B14C46A5E7082E85D8B4
:10A790006FF489733341DC07EDD57FE7049B1BBB66
:10A7A000002303980593036805A99B6B984781468E
:10A7B0000028E9D1059B002B7FD100248CE74FF0C6
:10A7C000FF31C21C994274EB020243D39DF806206C
:10A7D000402A80D14FEA134C05F10C0105F1180411
:10A7E0008C4229D109F10109049B4B457FF656AFF4
:10A7F000CDE906AB03984946036806AA9B6A9847C9
:10A80000044600287FF468AFDDE906306FF0010CE4
:10A810005A1E40F1FF3194456FF010028A41CED3A9
:10A820009DF80620402A7FF456AFD5E902129042E7
:10A8300008BF8B42D6D1B3E751F8042F002ACFD0FE
:10A84000BCEB124FCCD198B20028C9D092B2904242
:10A85000C6D8A5E713F5803F70F1FF32FFF43BAF98
:10A860009DF80620802ADEE70023039806930368FC
:10A870004946DB6B06AA9847044600287FF42CAFB4
:10A88000069BD90704D5D8F800200799914212D128
:10A890009A0705D5BDF82010B8F8042091420AD1D6
:10A8A0005B078AD57868B8F80420036809999B6823
:10A8B0009847002881D109F10109059B4B45D3D860
:10A8C000ECE600BFFCE30C080BA30E08D0E30C0879
:10A8D000987102209C710220EDE30C080023F0B572
:10A8E0008BB0CDE90433054600688DF80D308DF846
:10A8F0000E308DF80F3003680DF10D01DB689847BD
:10A900000446002840F0C78028680DF10E01036856
:10A910001B6998470446002840F0BD8028680DF167
:10A920000F0103685B6998470446002840F0B38034
:10A93000286804A903685B6A98470446002840F029
:10A94000AA80286805A903689B6B984704460028DD
:10A9500040F0A1809DF80E30002B00F09E809DF805
:10A960000D30402B07D0802B40F09E809DF80F309B
:10A97000102B00F09B802646049BB34207D800268C
:10A980004B4F059BA3423AD801200BB0F0BD28687D
:10A990003146036806AA9B6A9847002879D19DF83A
:10A9A0000D30402B16D1DDE906326FF0010C591E37
:10A9B00042F1FF378C456FF01001B94108D24FF0DA
:10A9C000FF310332994270EB02020CD39BB253B1B8
:10A9D0000136D1E7802B06D1069B079A13F5803FFD
:10A9E00072F1FF32F1E7334B0446002856D00121C3
:10A9F0000D20314A00948DF0EDFE0020C5E7286857
:10AA0000069603682146DB6B06AA9847002840D1CA
:10AA1000069B03F0020103F00402DB0710D411B11E
:10AA2000F2B1264BE0E7002AFBD0099B03EA0702BC
:10AA300012F5003FF5D89BB2B3F5404FF1D215E0C7
:10AA400009B1002AEDD1079B13F5302F4FEA134CC3
:10AA5000E7D2BCF1000F0BD11B0410D56046E0E734
:10AA60004FF6FF73BDF820209A42DAD0013488E710
:10AA700040F2FE3C03F580639BB26345D1D829B117
:10AA80004FF6FF73BDF820109942CAD0002ACCD1EE
:10AA9000ECE70B4BA8E70A4BA9E70A4B01210D2075
:10AAA000094A8DF097FEA8E7084BF7E7084BF5E752
:10AAB0000000FFFF14E40C086CE40C0824E40C080C
:10AAC00003E40C0857E40C0882E40C0845E40C0885
:10AAD00033E40C082DE9F0430546006887B088464A
:10AAE0001F468DF80F2020B90324204607B0BDE88B
:10AAF000F083DFF86490AB68CDF81490EBB90026D2
:10AB00002868394603680DF10F02DB6B984704464D
:10AB100078B91EB133684B4508BF00260223414671
:10AB2000CDE9006328463B469DF80F2072F06FF890
:10AB3000002405A872F04AF8D7E79DF80F3039468F
:10AB40008DF81330036805AA5C6B0DF11303A04761
:10AB50000028D4D105AED3E79C710220034B1868BE
:10AB6000034B002808BF1846704700BF203401205F
:10AB70002434012010B5044602210D20024A8DF034
:10AB800029FE024B1C6010BD94E40C082034012007
:10AB900010B5094C094922460948B3F026FC224663
:10ABA00008490948B3F021FC2246BDE81040074996
:10ABB0000748B3F01ABC00BFDC7002209BCB07082B
:10ABC00024340120ADCB07089C710220AFCB0708CD
:10ABD000987102200023F7B5CDE900334AB96E46DB
:10ABE00001AB15240E4A013C06D11423036003B0C7
:10ABF000F0BD6B4601AEF4E71578002DF5D0557821
:10AC00008D4206D107683568AF4207D0019D0135F6
:10AC10000195009D403201350095E4E71B68E5E7AA
:10AC2000E839002007B5019021B10122097801A877
:10AC3000FFF7D0FF019813280AD8064B820103EBD7
:10AC400080109B5C002B08BF002003B05DF804FB64
:10AC50000020FAE7E83900200023152010B5136022
:10AC6000074B013801D1002010BD1C78002CFAD010
:10AC70005C7840338C4202BF146801341460F0E702
:10AC8000E839002000231A4610B50648B3F5A06F36
:10AC90000A6001D1002010BD4033C45C002CF9D003
:10ACA0000132F3E7A83900200868114B70B59842CB
:10ACB0000E46154603D303F10C02904214D31B79C0
:10ACC000A3B90B4C03689B6898470123002D34609F
:10ACD000237108BF00234FF00000637118BF2B7869
:10ACE000A06018BFA37170BD0446EBE71920FAE716
:10ACF0003434012002210D20014A8DF06BBD00BFCC
:10AD000018E50C0838B502210D20074A8DF062FDC8
:10AD10000024064D60194034B4F5A86F01D100201D
:10AD200038BD72F018F8F5E740E50C08E839002066
:10AD300038B50B4B0C46984202D30C33984201D3E2
:10AD4000B4F07AF985680FCD0FC40FCD0FC40FCDC5
:10AD50000FC495E80F0084E80F00002038BD00BF45
:10AD6000A47102202DE9F041144C1F460E46152314
:10AD7000A046013B01D119201EE0217871B1403479
:10AD8000F7E763783B70B6B1A4EB0804A411346014
:10AD90002A4630463978FFF71DFF0CE0214610683F
:10ADA000FFF7C6FF054630B9002FEAD11EB1A4EB6C
:10ADB0000804A41134602846BDE8F081E839002079
:10ADC000064B984203D303F10C02904204D39B68D4
:10ADD0000248002B18BF0020704700BFA47102205A
:10ADE00010B50868FFF7ECFF80B18268084B0AB124
:10ADF0009A4206D21B784BB9054A71F0F3FF002046
:10AE000010BD03F14004A242F4D2F6E71920F7E79F
:10AE1000A839002038B5114A83684BB9104B8360BC
:10AE20008468944201D0237833B982600A2038BD07
:10AE30009342F5D24033F2E743791BB165788379C9
:10AE40009D42E9D10868FFF7BBFF20B1224671F0AF
:10AE5000C9FF0020EBE71920E9E700BFE83E00202A
:10AE6000E8390020F0B50E4F84680646BC4205D391
:10AE700007F140039C4201D20020F0BD3B7863B94A
:10AE8000074D0FCC0FC50FCC0FC50FCC0FC594E8E5
:10AE90000F0085E80F00B760EEE71920EDE700BF6F
:10AEA000A83900202DE9F0410E4611463046FFF743
:10AEB000B9FE0446002842D0224FBB68984202D116
:10AEC0003846FFF7CFFFDFF88C80444516D204F1F7
:10AED000400CC4450FD294F8403063B165460FCDA5
:10AEE0000FC40FCD0FC40FCD0FC495E80F0084E839
:10AEF0000F006446E9E7204671F02DFF124CBB6855
:10AF000004EB86169E4212D003D2434501D2403B49
:10AF1000BB600E4A93689E4206D8434504D2A342C2
:10AF20000CBF0023403B93600020BDE8F0817D68AA
:10AF3000286803689B689847054B2B60E9E70A205F
:10AF4000F3E700BFA4710220E83900203434012067
:10AF50009C710220E83E00208268054B00219A4245
:10AF600003D340339A4238BF11708160704700BFED
:10AF7000A839002010B5094CD4E8AF3FDB070BD44B
:10AF8000204698F0B8FD38B1054A06490648B3F0A6
:10AF90002CFA204698F0B4FD034810BD303401204F
:10AFA000DC7002202DCE0708A071022010B5084CDD
:10AFB000084922460020B3F018FA0020064B074A41
:10AFC00018711A6006492246BDE81040B3F00DBA68
:10AFD000DC70022033CE070834340120C4E50C08AD
:10AFE000D9CE070870B5104ED6E8AF4F14F0010463
:10AFF00018D1304698F07FFDA0B10C4D0C4A2B467D
:10B0000007CA43F8044B83E807004FF6FF722A8211
:10B010004FF0FF321846C5E9052472F0B2F8304609
:10B0200098F06EFD014870BD403401204434012089
:10B0300058E60C0838B5054604300C4672F0A1F805
:10B040002A6813461BB9E26001202C600DE0986865
:10B05000A16888420ED1197909B1217931B923202B
:10B060000121054A8DF0B6FB002038BDD888E18863
:10B070008842F4D0DB68E5E724E60C082DE9FF41BF
:10B080000A9F884616461D468DF0C7FB04460028D9
:10B090003FD0D6E900010026231DD8F80020C4E9DE
:10B0A0000133C4E906011D4B267323602661226229
:10B0B00004F1280C95E80F008CE80F002B7C04F1BC
:10B0C000480084F838306B8A63876B69E363D5E99D
:10B0D0000623C4E91023124B04F1580519680B68C4
:10B0E0009B68984700220023C4E9142301AB97E82A
:10B0F000070083E80700012385E80700A4F87430FF
:10B10000084B84F8646084F8686084F86C60A66713
:10B110002360204604B0BDE8F08100BFB4E60C080F
:10B120009C730220FCE60C08094A08B5026002691B
:10B130000AB1B3F081FF074A011D026082688A42AA
:10B14000F7D141680029F4D04A604368136008BD14
:10B15000B4E60C086CE60C0810B50446024B03601C
:10B16000FFF7E2FF204610BDFCE60C08F7B50C46E1
:10B17000114B0546196868460B689B689847D4E9E7
:10B180001421009B20469F1A019B63EB010672F07D
:10B19000D8FB038920469F4276F1000309D272F062
:10B1A000D0FB0430036828462B6000236B6003B09B
:10B1B000F0BD72F0C6FBF5E79C7302202DE9F04369
:10B1C00007460E46154698466FF001096FF01004C9
:10B1D0008BB089F0DBFA421E41F1FF33914574EBED
:10B1E0000303F6D300231836CDE904010293304659
:10B1F0002B46CDF8008004AA02A9FFF73FFF0446C2
:10B2000050BB4FF0FF324FF0FF33CDE9062306ABC2
:10B2100003900893304603AB1C4A08A909938DF0AC
:10B2200064FB039C2CB900233B7038460BB0BDE88F
:10B23000F083236820461B689847214630468DF0EE
:10B2400032FB2B463046CDF8008004AA02A9FFF756
:10B2500015FF04460028E6D095E80F0004F1280603
:10B2600086E80F002B7C204684F838306B8A638791
:10B270006B69E363D5E90623C4E9102301233B701E
:10B2800023687C60DB689847CFE700BFA9D8070830
:10B29000084B10B50360183343600446083072F061
:10B2A000C4FB014620B9606900F5CF608EF064F8F8
:10B2B000204610BDA8E80C08A0F10400E8E700BF94
:10B2C0002DE9F04F06460C468FB01D469DF86430C0
:10B2D00090460793D1E90023CDE9003227200B7A6D
:10B2E0002D4A0321189FDDF868A09DF86C908DF021
:10B2F00071FA00222146304672F0E8FB834670BBAB
:10B3000003212720254A8DF065FAD6F834C0DCF8F1
:10B3100000E0049694E80F008DE80F006046DEF828
:10B320000030326B06F1080198478346B8B925B161
:10B330000B2221462B69E86898476FB194E80F000B
:10B3400008AD85E80F000B230C93002329468DF8E8
:10B350003430F8683B6998470FB0BDE8F08F584625
:10B36000079980F0AAF8BAF1000F03D05146584669
:10B3700011F028FC2DB14B462A464146584680F034
:10B38000A4F9002FE8D04B463A46414658460FB044
:10B39000BDE8F04F80F0A1B93CE70C086DE70C0860
:10B3A00082B070B586B00AA981E80C00012205467A
:10B3B00072F08CFB0446E8B903212720134A8DF074
:10B3C00009FA6C6B0AAB266804950FCB8DE80F0069
:10B3D000204633682A6B05F108019847044688B96E
:10B3E000032127200A4A8DF0F5F906B0BDE8704028
:10B3F00002B070470A9B0321009327200B9B054A4C
:10B400008DF0E8F9204611F067FDEEE7B8E70C088B
:10B41000FEE70C0845E80C0810B5094C094A022162
:10B420000D208DF0D7F9FFF7DDFD2146FFF702FE75
:10B43000FFF794FB04F11001BDE8104071F0CEBBA2
:10B4400060340120CCE80C082DE9F84391F83870FD
:10B4500004460E464FF000080FB191F839800025E0
:10B4600004F1080948468BF0CCF93146484625607E
:10B470008BF0DCF984F840700FB184F84180064B02
:10B48000A4F85050A36484F8905084F8D05084F805
:10B49000D8502046BDE8F8839C71022070B590F921
:10B4A000343004460133A6B002D1002026B070BD6E
:10B4B0000368002BF9D100F1080528468BF045FD03
:10B4C000014620600028F0D1134E942201A8009676
:10B4D000B3F0EDFEA06C03689B689847892202A92F
:10B4E000A66404F15000B3F09AFD684671F06EFB5B
:10B4F000294604F1480081F030FE20600028D4D1B4
:10B5000094F840302BB1A06C94F841100368DB69CB
:10B5100098470120CAE700BF9C7102202DE9F04145
:10B52000CEB007460E460D7AFFF718FB006850B103
:10B53000036829465B6A03AA9847044628B1204657
:10B540004EB0BDE8F0810324F9E7FFF707FB04A93B
:10B55000006872F00AFB04460028F0D1BB7B012B87
:10B5600000F2828006A88BF04CF92246214606A8FC
:10B570008BF08AF9304606A98DF8504072F021FB15
:10B58000074608B10446DAE79DF94430013310D18B
:10B59000059006A916A8FFF757FF16A8FFF77EFF2C
:10B5A000A8B9169C28A8212C1BD0D4B171F00EFB91
:10B5B000C5E705A906A88BF030FD08B10446BEE733
:10B5C000DDE904329A42E4D940F28954B7E728A869
:10B5D000FFF784F90028E0D128A871F0F7FA2F24AA
:10B5E000ADE771F0F3FA06A916A8FFF72DFF06F1F3
:10B5F000080816A8FFF752FF28B9169C212C31D055
:10B6000084B328A8D2E7039BBB420DD9FFF7A6FA63
:10B6100028AB00932A463B46414671F058FB04464E
:10B620000028EED10137E4E7FFF798FA28AB009342
:10B630002A460023414671F001FBF0E7013B0393EA
:10B64000FFF78CFA2A463146039BFFF743FA04467C
:10B650000028D6D1039B9F42F0D328A871F0B6FAF8
:10B6600000246CE70836F5E7042B30D1039B049ADD
:10B6700001339342A8D8174BADF86000169301230D
:10B680003371337A8DF8A0008DF8E0008DF8E80072
:10B6900016AFB3B13846316881F05FFD044690B90A
:10B6A000169816F8081F0368DB699847FFF756FAE3
:10B6B00023462A463146009771F0C0FA28B9384629
:10B6C000CCE740F27E54384670E70446FBE76C2432
:10B6D00035E700BF9C71022013B508468368114608
:10B6E00033B1012B40F2865018BF002002B010BDCC
:10B6F000FFF714FF2F280ED0D8280CD00B28F5D137
:10B7000040F28954034601210D20044A00948DF033
:10B7100061F82046EAE740F28754F3E7EFE80C08C7
:10B7200070B5104B86B004460E46CDE90030154684
:10B730000EF000FB002304931F23039301238DF8D5
:10B74000143094F83C30ADF808608DF8153013B91A
:10B75000712006B070BD2B46694602AA7CF04AFAF9
:10B76000F7E700BF84E90C0870B5B4B00C46DDE91A
:10B770003865002945D04022002102A8B3F097FD8A
:10B780002378012D8DF8443002D18DF81C5001E052
:10B79000022DFAD06378402B35D1D4E90223CDE9CC
:10B7A000022301238DF81030002E35D000213C22D9
:10B7B00024A8ADF84C108DF858108DF864108DF851
:10B7C00068101296B3F073FD12A881F0D0FC044605
:10B7D00088B908AD13AE0FCE0FC596E80F0085E807
:10B7E0000F0001236A4621468DF8403002A8FFF77A
:10B7F00097FF044628B1234601210D20084A8CF00A
:10B80000E9FF34B070BD202B01BFA368ADF818303C
:10B8100001238DF81A30C7E76A463146E6E700BFD4
:10B820001AE90C082DE9F0478C681546042CB8B0CD
:10B8300009D80023042C10D8DFE814F011000F0001
:10B84000FC00160120014FF6FC739C4200F01E81A3
:10B850004FF6FD739C4200F0378100246FE0002119
:10B860009C4B3C2204939C4B05AE28A80593ADF855
:10B870005C108DF868108DF874108DF8781016969D
:10B88000B3F015FD0123284685F8443071F0FBFE26
:10B89000044600284CD10BA80A958BF06FFC8F480A
:10B8A00072F06BF938B38E48B0F83C3900F6880076
:10B8B00003F00503052B0CBF0746002700220523D4
:10B8C000DFF82482CDE908234046CDE9068772F0EF
:10B8D00054F910B906A872F060F9089C052C0CD137
:10B8E000284671F015FF00244FF6FF7385F84C4091
:10B8F000A5F84A301CE00746E0E7902303FB0484E8
:10B9000094F8819047B1384672F037F920B197F832
:10B9100081304B4508BF3C4694F88140FFF71EF943
:10B9200000688DF80C4070B9284671F0F1FE0324D0
:10B93000304671F04BF9049803689B68984720469D
:10B9400038B0BDE8F087036803AA1B6C04A99847C8
:10B950000446CCB155E0169B8DF80C40186803A93D
:10B9600003681B6998479DF80C30002B60D00A9B38
:10B9700093F845309BB9DDF828900BA9484699F813
:10B9800008A071F0ECFEC8B9049831460368DB6882
:10B99000984704460028DED00A289BD031E0169B49
:10B9A0008DF80C40186803A903681B6998470A9A28
:10B9B0009DF80C30127A9A42E6D1DCE799F84630CD
:10B9C000D9F800107BB1096C4FF480720023CDF8D8
:10B9D00000A016A881F0B2FC044601460BAA484616
:10B9E00071F0D6FEB5E7D9F8403009F1280203A876
:10B9F00071F003FE044640B1214648460BAA71F09F
:10BA0000C7FE284671F084FE92E7D9F80030022282
:10BA1000196C16A80023CDF800A081F08FFC044615
:10BA20000028E9D1D9F8001003A871F01EFED3E771
:10BA30007124E6E71693FFF791F8006890B1036868
:10BA40009B6916A99847044600287FF478AF169B97
:10BA50000AA9ADF82830012385F84430284672F051
:10BA6000E6F82FE003246AE71693FFF777F80068FB
:10BA700000283FF464AF0368DB69E2E71693FFF741
:10BA80006DF816A9006872F070F8DCE7012382F8FF
:10BA900044302968136C16A8283271F0AEFD0446B4
:10BAA00000287FF44CAF2B680222186C009400230E
:10BAB0008BF026FD044600287FF441AF296816A8C4
:10BAC00071F0D3FD04463AE70123064982F8443079
:10BAD000C4E700BF987102209C710220809C002066
:10BAE000F893002090E90C08B099002001221F2350
