:020000040800F2
:106000000812002031E2030883160A082BD907087A
:10601000974B0A0833D9070837D907083BD907082F
:1060200083160A0883160A0883160A086DB60C0838
:106030003FD90708A0410E0811B60C0859E00C081A
:1060400091DE030883160A0883160A0883160A08D5
:1060500083160A0883160A0883160A0883160A0894
:1060600083160A0883160A0883160A088D99000801
:1060700083160A0883160A0883160A0883160A0874
:1060800083160A0883160A0883160A0883160A0864
:1060900083160A089DEB030883160A0883160A086C
:1060A00083160A08B1E5030891E5030883160A0878
:1060B00083160A0825AE0708D1B8070879840C08AA
:1060C00075840C0861B007088F840C087D840C0867
:1060D000A1B8070881840C0811B9070879B9070825
:1060E00083160A0883160A0883160A0883160A0804
:1060F0008B410A0883160A0883160A0883160A08C1
:1061000083160A086147060883160A0883160A08D8
:1061100083160A0883160A0883160A0883160A08D3
:1061200083160A0883160A0883160A0883160A08C3
:1061300083160A0883160A0883160A0883160A08B3
:1061400083160A08193E040883160A0879DF0C082A
:106150004192070883160A085B840C0861840C08C6
:1061600083160A0883160A0883160A0883160A0883
:10618000F0B5114A114C124E00F00105E3695F07AA
:1061900013D40DB9334213D103EA00078F4207D15C
:1061A0000B4A1A40002A0CBF00206FF00100F0BD1E
:1061B000013AEBD16FF00200F9E74FF0FF30F6E75C
:1061C0006FF00100F3E700BF8096980000000350D5
:1061D0000200010070B50B4BD96911F480310DD16B
:1061E00001244FF48072084E084DF46020462C6460
:1061F0001A61FFF7C5FF3464EC6070BD6FF00100F9
:10620000FBE700BF000003500010035000200350C4
:106210004FF4803238B50E4B0E4C9A66E56941F664
:10622000713315400122E3630B4B0021DA60022336
:10623000606121202361FFF7A3FF10B92120FFF740
:106240009FFF0122054BDA600DB10023E36338BDE7
:106250000090005000000350001003500020035035
:1062600070B5134C6061E3695B071ED40E4656F8A7
:10627000043B8D18A361AE420BD1042300212120E1
:106280002361FFF77DFF58B9BDE870402120FFF77B
:1062900077BF08210846FFF773FF10B1042323617D
:1062A00070BD56F8043BA361E5E74FF0FF30F7E718
:1062B000000003502DE9F84315464FF48032184B87
:1062C00089469A6603F51C33DF690646174041F696
:1062D0007132DA63012203F58053DFF84C80DA6013
:1062E00055B9284601220F4BDA601FB10022A3F5F1
:1062F0000053DA63BDE8F88306F5005404EA0804A5
:10630000A41BAC4228BF2C46494622463046FFF724
:10631000A7FF0028E6D12644A1442D1BE0E700BFDB
:10632000009000500020035000E0FFFF000000003C
:10633000000000000000000000000000000000005D
:10634000013800D0FCE770472DE9F04F00252DED16
:10635000028B04461646A9462F469FED358B90F8D2
:1063600038309BB00591039300F108080295039A19
:106370002BB29A420ED1029B20460CA9CDF8309048
:106380000D938DF8387006F03FFC1BB0BDEC028B0E
:10639000BDE8F08F58F8043F615D2748049389F009
:1063A000DDFC84460DF1180EBCE80F00AEE80F00CE
:1063B0009CE803008EE8030031680CA80B689B6919
:1063C00098470A9BDDF82CB001930198DDE90C2376
:1063D0009B4508BF90429DF8191027D19DF838A021
:1063E0008A4523D1154B57460C93059B144A1093AD
:1063F0000023314611A81192CDE912338DF85030A7
:106400008DED0E8B9AF08EFD316816A80B689B6996
:106410009847049AE36B12680CA906A898470CA841
:1064200005F0D4FFDDF80490CDF808B001359EE703
:10643000000000000000000050AF0020B8060D086A
:1064400054390E08000000002DE9F04F2DED028BAD
:1064500092460A68BFB002900393084692690C46C0
:106460009047039B06AE1D7E0746D3E90089D3E91A
:10647000040193ED028B86E8030093F824B025B164
:10648000D3E9070109AA82E803000023BBF1020F48
:106490008DF8173000F081800DF11702514620462B
:1064A0007AF01DFD0246002879D19FED3F7B404BDD
:1064B000DFF804A118683F49DAF800300968B3F83A
:1064C00044300EAC0B908DED007B2046ADF83230A1
:1064D0008DF830700D9108F007FA42464B46009453
:1064E0000BA883F05DFC50BB9DF81730EBB1002585
:1064F0009DF8EC308DED308BCDE92E898DF8C8B04C
:1065000013B1204683F0EEFB96E80600204683F0A8
:10651000A6FB2F2821D18725204608F06DFA2846B2
:106520003FB0BDEC028BBDE8F08F35B1DDE909125B
:10653000204600F0B9FA0028D9D10125ECE7D82887
:10654000FBD10BA8BDF8EE5083F0A9FC854222D206
:106550000BA883F089FC0546CAE70028EDD1224646
:10656000BDF8EE100BA814F0E1FD074668B915B1AF
:10657000029808F0EDF9DAF800000025C3680C3045
:106580001B6998474A9B1860C6E7204683F0AAFB20
:106590002F2FC0D0D1E78925BEE78725BFE701258A
:1065A000BDE700BFAFF30080000000000000000066
:1065B000E4350120E0350120DC3501200000000039
:1065C0002DE9F04F2DED028B91F92C30044601336B
:1065D0000D46ABB00AD100230193019B022B0ED9CB
:1065E00019202BB0BDEC028BBDE8F08F284601A925
:1065F00092F07BF90028F0D040F28550F1E7204678
:1066000013B980F0E4FBECE711F01AF8804600289B
:106610005ED0204680F0CBFB002180F0F4FB037CB1
:106620000768002B57D000F120020DF1080C00F193
:106630006003664610685168083203C69A42B44641
:10664000F7D14FF0010900269FED5D8B14A891F062
:1066500040FD294614A8129691F050FD20468DED7C
:10666000248B22968DF8986080F061FBDFF858B19A
:1066700012A85FFA86FA80F0C1FA002861D0129B56
:10668000002B5ED114A922A88DED248B22938DF8C6
:106690009830B6F0B8FC1290002852D1514604F15F
:1066A000300080F0B0FB229A054602F52843C03343
:1066B0005B4506D8DDE92431BAF1000F0DD10B435B
:1066C0000DD0204680F05AFB00288AD1B92088E7F7
:1066D00081460746B7E79946B5E70B43F1D02A60F4
:1066E000DDE92423C5E902239DF8983023B1DDF8C4
:1066F000A0A0BAF1000F03D100232B740136B7E735
:10670000BAF1400FDDD805F12003402200211846E0
:10671000BAF0E7FA9DF898200AB9BAF0A7F9DDE9CE
:106720002712924506D2204680F028FB00287FF4ED
:1067300058AF61E7BAF0BBFA0122C5E9050A2A742D
:10674000DCE7129B212B01D0002BECD1C4F838A040
:10675000B8F1000F1ED0204610F072FFD0B12046D5
:1067600080F025FB002180F04EFB0368057CBB42D6
:1067700019D065B1B9F1000F09D08369402B06D15A
:106780004022406902A9BAF082FA00B915B1042387
:1067900084F85431204680F00AFB014604F5A870C5
:1067A00011F084FC1DE7002DF4D0B9F1000FF1D0F9
:1067B0008369402BEBD10025E2E700BFAFF30080F7
:1067C0000000000000000000A06D010000000000BB
:1067D0002DE9F0472DED028BC8B01AAB0293B6231A
:1067E0000393002304468B600CA80D467DF013F93B
:1067F00043490CA87DF065F9204602AA0CA980F057
:10680000C8FCD0B90CA891F064FC02A904A87CF0E3
:106810000AFADDE904120CA891F09EFC4FF4807294
:10682000002316210CA892F030F830B90DF10301C5
:106830000CA891F064FE064620B148B0BDEC028B76
:10684000BDE8F08701A90CA892F04FF8019A6B6897
:106850009A4239D860249FED288B01270CA891F02B
:10686000DCFF50B12128E8D19DF903100CA891F06C
:10687000A0FF0446B8B32046DFE76B689E4201D311
:10688000BAF0F4F804FB06F9D5F800A004908DF8EE
:1068900020000CA904A88DED068B0AEB0908B6F0C0
:1068A000B2FB0028C9D1049B4AF80930DDE9062370
:1068B000C8E902239DF8203093B1DDE90919B9F147
:1068C000400F08F1200301D91920B6E74A461846BF
:1068D000BAF0EDF9C8E9050988F810700136BDE78E
:1068E00088F81030FAE70CA891F097FF2128A4D17E
:1068F000AE60C0E7AFF300800000000000000000C1
:106900009F400D08000000002DE9F04F2DED028B97
:10691000C36B0446BFB00BB9BAF0A8F8066C002EE2
:10692000FAD05B4D31462B6906A803F101097AF0D4
:10693000ABF805230022314600930AA87CF006F943
:106940004FF000089FED508BDFF854A10AA906A86C
:106950007CF013F900285ED006A87AF065F890F86C
:106960008100B5F84410E26BA36C8DF8100003A809
:106970000392ADF81210059383F076FA06460028CC
:106980007DD1DFF820B103A883F089FAB7B2B8420D
:1069900075D98DED008B0022A16C0EA807F0A4FF25
:1069A00039460EAA03A883F0E9F9D82864D048B183
:1069B0005A460121212093F075FB0EA808F01CF81F
:1069C000474656E02046DDE930239DF8B01082F0BE
:1069D0006BFF0028F1D0206D0EA903689B689847D3
:1069E00007460028E9D0B8F1000F06D16B69BBB9A2
:1069F00001212120274A93F055FB04F1580093F020
:106A000074FB804618BB21200121234A93F04AFBE6
:106A10000EA807F0F1FF3FB0BDEC028BBDE8F08F90
:106A20002B7E002BE4D02B692A6C013393422B611F
:106A3000E3D3E96B1948114482F0C6FF0028D7D18F
:106A4000EA6B2B6913442A6C9342D1D1D5E7616C70
:106A500013F078FE4B464046226C0EA913F05AFF05
:106A600020B152460121212093F01CFB0EA807F013
:106A7000C3FFB846013686E70EA807F0BDFF06A89B
:106A800082F07BFF62E700BF000000000000000012
:106A9000803701200C550D0853550D088C37012007
:106AA00077550D08BD540D082DE9F04F2DED028BE3
:106AB000C7B008AE102A0446914686E8060068D1A1
:106AC000D0F8B810002966D090F8B450002D3DD011
:106AD0009FED338B00228DED008B16A807F004FF8D
:106AE00096E8060016A883F0BAF858BB4FF00D0BD5
:106AF000CDE90E00CDE91000CDE91200CDE914007A
:106B000007908FF0ABFA079B3BAA0EAE0DF1300A4F
:106B100012AFCDE90A01009280461A460D46CDF823
:106B2000149008210496CDF80CA0CDF808B0019778
:106B30000AA82BF065F98DED0A8B034660B116A803
:106B400083F0D0F8002516A807F056FF284647B076
:106B5000BDEC028BBDE8F08F0AAA94340821CDE980
:106B600004B2CDE9019402460397504600962BF0FB
:106B70002FFA079016A883F0B5F8079B002BE1D1F8
:106B8000DDE90A23AB4208BF42450CBF01250025C1
:106B9000D9E70025DAE70D46D8E700BFAFF300805C
:106BA00000000000000000002DE9F04F2DED028BE9
:106BB000083085B00F469146DDF8508093F095FA85
:106BC0000446002800F09A806E4600259FED4E8B0B
:106BD0004FF0010B41F2A45A10AB0FCB86E80F0027
:106BE0004B4BC4E902552360C4E90455C4E906557A
:106BF0002C336360474B04F1480C0FCB84ED0E8BB4
:106C0000C4E90C5584F8205084F840508CE80F00FB
:106C1000414B84F858B0A4F85AA0E56584ED188B70
:106C2000A36604F17C03C4E91F333C4B1022C4F873
:106C300090302946C4E91B55C4E9255584F87450A1
:106C4000C4F88450C4F89C5004F1A000BAF049F88C
:106C500084ED2E8B84F8B0B0A4F8B2A0C4F8B45080
:106C600004F1C00094F033F84AF6C873C82284EDEA
:106C7000368B84ED388BC4E93A2304F58273C4E97A
:106C80003E55C4E94133A4F8CC5084F8CE50A4F862
:106C9000D05084F80051C4F80C513B68A3607B6865
:106CA000E360BB682361FB6863613B69A3617B6947
:106CB000E3613B7E84F8203033B104F1240307F113
:106CC0001C0207CA83E80700384678F016FBA8B90B
:106CD000B9F1000F12D0B8F1000F0FD003CE337806
:106CE000C4F8309084F84030012384F8F830231D34
:106CF000A063E163C4F88880C4F89C30204605B0E6
:106D0000BDEC028BBDE8F08F000000000000000029
:106D100078630D08003C012054390E0810540D080A
:106D20002DE9F04F2DED028B00240025CBB09946C4
:106D3000CDE92E450023CDE93045CDE934454FF668
:106D4000FF74DFF898A2064688461746CDE90C3353
:106D50008DF8C8303393CDF8D8A04894A2B3054637
:106D600000F53474A54206D10B2420464BB0BDEC8F
:106D7000028BBDE8F08F284678F067FB08B19035AC
:106D8000F0E79FED8F8BBDF85C318DF8C880ADF8D2
:106D900020318D4B4FF4C8710E93002309A8CDE923
:106DA00009330F93CDF870A00B937BF046FF099C3D
:106DB00014BB0B240BA878F074F90AA878F071F9C9
:106DC00009A878F06EF9D0E78BF02EF9044608B9DF
:106DD000AC24CAE706F53475284676F019FFB4F8F6
:106DE00082308DF8C880ADF8203121460CA894ED92
:106DF000028B8BF086F8CCE74FF4C8710AA87BF0C1
:106E00001CFFDDF828A0BAF1000FD2D04FF4C871F2
:106E10000BA87BF012FF0B9A002ACAD04FF4C8735C
:106E20004146CDE91332304610AA1094CDE9113A0B
:106E300015938BF059F904460028BBD141463046E2
:106E400012AA8BF033F904460028B3D141463046EC
:106E500014AA8BF008F904460028ABD110A916A893
:106E60007BF0E1FE12A918A87BF0DDFE14A91AA898
:106E70007BF0D9FE36AB079330AB05930DF1B80A22
:106E800034ABCDE903A30DF1700B0EAB8DED008B90
:106E9000CDF818B002931AAA18A916A820F09CFDE4
:106EA0000446002886D10BA878F0FBF80AA878F0F1
:106EB000F8F809A878F0F5F8B9F1000F13D1D6F871
:106EC000640300285ED003689B6898470346D6F8A1
:106ED0006403002B4ED003685A4641465B699847CD
:106EE000044688B141E7D9F8003048465B699847C5
:106EF00059468BF0F1FB08B9C52436E79DF85831A7
:106F0000CDF8CC908DF822319DF860315146B3FA1E
:106F100083F328465B098DF823318BF059FB044637
:106F200000287FF422AF28460CA98BF02FF806F535
:106F30005D7495F881303FB302211120234A93F00C
:106F4000B1F8D5E900122B69CDE9012100936B69F5
:106F5000022111201E4A93F0A5F820460F9922F035
:106F6000E3FC034630BB96F88233013386F8823364
:106F70000024FAE603684146DB6898470028C3D13D
:106F80001024F2E60324F0E6D5E900121120CDE941
:106F9000002102210F4A93F085F820460F9922F034
:106FA000C3FC03460028E3D0012111200A4A93F0D4
:106FB00079F8DDE701211120074A93F073F8D2E751
:106FC0000000000000000000E8B90D08ACB80D0892
:106FD000CCB80D080FB90D0844B90D08AC020E0865
:106FE0002DE9F0478AB00DF10D03019315230646F4
:106FF00000934FF48072002308460C4691F056FF30
:10700000E8B996F89630012200932046002391F0CB
:10701000D4FEA0B996F897300222009320460023B0
:1070200091F0CBFE58B90DF10E0301931623032204
:1070300000932046002391F039FF054610B10AB0B5
:10704000BDE8F0874FF0100906F1C8070DF11808E8
:10705000102200214046B9F044FE0DF10F030193C8
:1070600015234FF4807200932046002391F01EFFF9
:107070000028E4D196F89720EBB29A4251D917ED47
:107080000C7BC44637F828ACA7F12603A7F1160EEF
:10709000624618685968083303C273459446F7D1AD
:1070A0008DED007B04220023204691F061FE002834
:1070B000C5D1052200232046CDF800A091F07DFE29
:1070C0000028BCD14046494606228DE80300002333
:1070D0002046CDE9048991F0BCFF0028AFD12046BD
:1070E0009DF90F1091F017FF013530370028A6D118
:1070F000032DADD120469DF90E1091F00CFF002814
:107100009DD1B6F88E30072200932046002391F0DF
:1071100054FE002893D120469DF90D1091F0FBFEFE
:107120008DE782469FED027BBAE700BFAFF3008098
:107130000000000000000000A0F1840050E700BF44
:10714000054B18680368D96901A3D3E900230847F0
:1071500000E0373B015D0300DC730220000000000B
:107160002DE9F84F402200212948B9F0BAFD30221C
:1071700000212848B9F0B5FD00209FED237B264B68
:10718000264E274ADFF888B0DFF8ACA0DFF8AC90D5
:10719000DFF8AC80DFF8ACE01E4FA3F1180C24251B
:1071A000002145430BEB401443E9054A0CEB050471
:1071B00043E9039843F8181C43F804EC2177216253
:1071C000182404FB007442F8144C164C42F8181CA6
:1071D00042F8104C144CA6EC027B42F80C4C134CB9
:1071E00043F8241B42F8084C114C42F8044C114C53
:1071F0002C442177216242F8241B08B1BDE8F88FA6
:107200000120CCE7AFF30080000000000000000088
:10721000D4870120A48701207487012090E90020F1
:107220002C870120B5860408FF4C0A081D4D0A086A
:10723000574D0A0814870120E5860408254D0A08E1
:10724000E74C0A08294D0A082DE9F043022089B0CD
:10725000C3F0BAFB00B9FEE7634E336803B9FEE73B
:107260001020C3F0B1FB3368604C9B880DF10B011B
:107270008DF80B30012320681A46C0F0E8FA9DF81B
:107280000B203168023A0023096892B22068C0F0EE
:10729000DEFA3368564993F829208DF8142000222D
:1072A000CDE906121B681D7815F0200516D0206860
:1072B000C0F06FF8002862D02068C0F06AF85DF076
:1072C000CBFE0B46024644A1D1E900015EF068F80E
:1072D0005EF0D6F9079B1844012507902068C0F09E
:1072E00066F89DF80B3000284CD0981DC0005DF06A
:1072F000C3FE3BA3D3E900235DF028FF804620684E
:107300008946C0F054F85DF0A7FE0B460246494698
:1073100040465EF045F85EF0B3F9079B18440790CD
:107320002020C3F051FB48B10021012220686AF0FF
:10733000EDFA002148F22000C3F032FB336805AFBC
:107340005A6962BB1020C3F03FFB00B3079B326851
:1073500003F5FA73117E0793264B99702649097835
:10736000D970917900972A462068BFF021FE78B342
:107370004FF48050C3F01CFC9FF0B8FD28E0079844
:10738000C030A9E70798063300EB4310C7E7316820
:107390003B462A4689792068BFF0F4FDE7E7196982
:1073A00016480A440021ADF8101096218180997981
:1073B000CDE90007A2F59B72039220682A4603AB31
:1073C000BFF001FE0028D3D101214020C3F0E8FA2C
:1073D00009B0BDE8F08300BF0000000060E3664133
:1073E0000000000080842E41148901206088012063
:1073F00020A1070064740220257D02205874022019
:107400007FB50120C3F0E0FA0546002840F0C980AE
:10741000674B684C1A889B78674E8DF80A30674B2B
:10742000ADF80820236041F60B233060B38042F0B2
:107430000FFA4FF0FF330393614B1B6ADB0700D455
:10744000FEE7604B2A461B88214623825E4B03A839
:107450001B68E582A3615D4B25621B8863825C4BE0
:107460001B68E3616AF010F900B1FEE76BF08AFD7A
:1074700000B1FEE7574903986BF0BCF800B1FEE796
:1074800002210398BFF066FF00B1FEE7524903985E
:107490006BF058FB00B1FEE701210398C0F0D3FB6D
:1074A00000B1FEE701210398C0F0E3FB054600B1FF
:1074B000FEE701463C224948B9F013FC2B468022E6
:1074C0000398009504F12401C0F0D7F900B1FEE75C
:1074D00001210398BFF042FD414D0398286000B997
:1074E000FEE731A3D3E90023CDE900234FF0FF32BB
:1074F0004FF0FF33BFF0EEFF014600B1FEE72E482C
:1075000041F06AFC01210846C3F04AFA286802A942
:107510006AF05AFA044600B1FEE7324B324A9880CC
:107520001860324B1A60FF229880314B83F8282074
:10753000304A98801A60304A6FF06300DA6048F091
:10754000D5FF33790B2B11D873790A2B0ED92B4B1E
:107550001E603CF0E7FB204642F06CF908222868E8
:107560001146BFF0D1FF044608B1FEE7FEE742F046
:1075700059F9234B102123481C709FF016FE00B9C7
:10758000FEE721491F489FF022FE00B9FEE71021C7
:107590008C201E4A40F06AFA00B1FEE71C48A6F0B3
:1075A000ECF804B070BD00BF0AE020FFE203000069
:1075B000F8620E08708801206888012079AC0C08F8
:1075C0000080E00FF2CD0E08F8CD0E08F0CD0E08C9
:1075D000F4CD0E0807001100CC620E0820880120AF
:1075E0006088012010EA002070660220E0E9002097
:1075F000B0E90020F0650220A0E9002064880120A5
:10760000F266022028890120B9DF0C0818890120C0
:10761000BDA10D08000000002DE9F3411E461C4BE2
:10762000044683424FF000038B4115460AD216A34D
:10763000D3E900235EF094F8164914460246284622
:10764000A8F0F9FB144B4EF66021B4FBF3F203FBF8
:107650001244B4FBF1F34FF47A7801FB1344B4FB0A
:10766000F8F728460D490097A8F0E5FB46B12846F3
:1076700008FB17420A4902B0BDE8F041A8F0DBBBA5
:1076800002B0BDE8F08100BF005C260500000000EC
:10769000FF5B260584A40E0880EE3600BFBD0D08F2
:1076A0008AA40E080000000007B588B10BA3D3E937
:1076B00000230949C1E90223CDE900234FF0FF323D
:1076C0004FF0FF330869BFF005FF03B05DF804FB1E
:1076D00000220023EDE700BF181101200DD5015550
:1076E000200000000348044B834202D0034B03B147
:1076F00018477047B07E0220B07E022000000000D4
:10770000064B0749C91A891048BF0131491003D0F7
:10771000044B0BB101481847704700BFB07E0220F0
:10772000B07E02200000000010B5064C237843B95B
:10773000FFF7D8FF044B13B10448AFF300800123D7
:10774000237010BDE8B301200000000030100F08C6
:1077500008B5054B1BB105490548AFF30080BDE8EE
:107760000840FFF7CDBF00BF00000000B8160120A1
:1077700030100F08A3F5803A704700BF174B002B5D
:1077800008BF134B9D46FFF7F5FF00218B460F46C0
:107790001348144A121AB9F0A4FA0E4B002B00D069
:1077A00098470D4B002B00D0984700200021040083
:1077B0000D000D48002802D00C48B9F02AFA5EF0FE
:1077C0003BFB200029009DF004FA5EF059F900BF50
:1077D0000000080000000000000000000812002067
:1077E00008120020006F0220130C0C08000000009B
:1077F00008B5154B4FF4E47200211846B9F071FA40
:1078000009220346026142611048114A98614FF40F
:107810008061DA61002219629A625A62DA62C3F800
:10782000F0000C48C3F8F400C3F8F8100A49C3F894
:107830000021C3F8FC20C3F8042111F8010D98546D
:107840000132102AF9D108BDD0160120A8EC0C088D
:10785000E9B70120E9B30120C1EC0C082DE9F84F8C
:10786000DFF88880824698F800308946532B164608
:1078700001D0FFF7BDFF182707FB0A87D7F8005193
:10788000D7F8FCB05D452FD9D7F8F840D7F8F410F9
:10789000641BB44228BF3446484629442246B9F006
:1078A000D8F8D7F8F8302544AB4208BF0025A144EA
:1078B000361BABEB050B5E4528BF5E465EB1182359
:1078C00003FB0A83D3F8F410324629444846B9F042
:1078D000C0F83444354424B1182303FB0A88C8F89F
:1078E00000512046BDE8F88F0024E2E7D0160120C1
:1078F000F8B5182700FB0775124B0E461D4407FB11
:107900000033DB6A1446012B0AD0022B14D023B9B2
:10791000284675F0FBFD844208D900242046F8BDB6
:10792000284675F0F3FD844228BF044622463146BE
:10793000284675F0F4FDF1E72846BDE8F84075F0FB
:1079400009BE00BFD0160120F8B50B4B04461B78CA
:107950000D46532B164601D0FFF74AFFEFF3118770
:107960004FF0200181F31188324629462046FFF767
:10797000BFFF87F31188F8BDD01601202DE9F04133
:10798000164C1E4623780546532B8846174601D0D1
:10799000FFF72EFF082D1DD8EFF3118C4FF02001BB
:1079A00081F3118865B1182005FB000344F80380BA
:1079B000E2180023576000FB05421662936253628F
:1079C000182303FB0544069BE3628CF31188002017
:1079D000BDE8F0814FF0FF30FAE700BFD01601207C
:1079E0002DE9F843174E1F4633780546532B894639
:1079F000904601D0FFF7FCFE082D1FD8EFF311824F
:107A00004FF0200181F311886DB11824002304FB8D
:107A10000564C4F8F090C4F8F480C4F8F870C4F8B1
:107A20000031C4F8FC30182303FB0566089BC6F838
:107A3000043182F311880020BDE8F8834FF0FF3055
:107A4000FAE700BFD0160120024B1B780BB10023D0
:107A500003737047EABB0120014882F064BA00BF9B
:107A6000E037012048F2040210B5038893420DD09C
:107A700006D803F5FF437F339BB2012B0AD910BD13
:107A800048F212029342FAD10F4A0CE0027A0F4BED
:107A90001A70F4E790F90830012B03D090F90930FF
:107AA000012BECD10A4A0221212092F0FBFA93F03B
:107AB000CEF9036840F6B8315C69064AA446BDE8D1
:107AC00010400023604700BFEAEC0C08EABB01202D
:107AD000C2EC0C08E3D5070808B594F09BFD28F02C
:107AE0005BFF28F08BFF09482CF0A8F900224FF427
:107AF0006171074887F0A1F930B1BDE80840012164
:107B00002120044A92F0CEBA08BD00BFC0B40020C4
:107B100018A0002026ED0C0810B50A200C46104ACB
:107B20001021C6F029FE0F4B186040B92120012119
:107B30000D4A92F0B7FA40F2017075F0DEFE204671
:107B40000A4A0849C6F0D9FA40B921200121084A59
:107B500092F0A8FA40F2027075F0CFFE002010BD3E
:107B60009CF00C087C19012054ED0C0878F00C08EE
:107B700077ED0C0810B5054B054C1870204694F0B5
:107B800024FB2046BDE8104094F077BBEABB0120FF
:107B9000C0B40020024B186808B100F0C7BA7047A3
:107BA000A818012008B5094B1868C6F047FC013039
:107BB0000AD121200121064A92F074FABDE808405A
:107BC00040F2067075F099BE08BD00BF841901200F
:107BD00091ED0C08014608B54FF47A72002380023B
:107BE000890D5DF0BDFD094B01461868C6F00AFC21
:107BF00050B121200121064A92F054FABDE8084014
:107C000040F2057075F079BE08BD00BF84190120EF
:107C1000A9ED0C0808B5094B0A211868C6F0F2FB5B
:107C200050B121200121064A92F03CFABDE80840FB
:107C300040F2057075F061BE08BD00BF80190120DB
:107C4000C2ED0C0808B5094A40F6B83302212120DC
:107C500092F028FA40F6B830FFF7BCFF0122044B3F
:107C60001A70BDE80840FFF7D5BF00BFDAED0C0879
:107C7000E9BB012008B502211D20034A92F012FA47
:107C8000BDE80840FFF7C6BF19EE0C0870B52A4DD5
:107C9000037D04462B70837D23B103212120274AD5
:107CA00092F000FAFFF7B6FF2B78FE2B22D0FF2BC5
:107CB00030D00B2B37D80B2B35D8DFE803F006126A
:107CC0000634343434343434341293F0C0F8036856
:107CD00041F288315D692346194AAC46BDE87040DF
:107CE000604793F0B4F8036842F210715D69144A7A
:107CF0002346F2E793F0ABF8036822465B6A10492B
:107D0000984793F0A4F803684FF47A715D690C4AC0
:107D10002346E2E793F09BF803682246BDE87040F3
:107D20005B6A07491847FF232B700221BDE87040AA
:107D30001D20044A92F0B6B90E7D022029EE0C08EF
:107D4000BD7D00085CEE0C0808B5094B1868C6F04C
:107D500075FB01300AD121200121064A92F0A2F9D7
:107D6000BDE8084040F2067075F0C7BD08BD00BF11
:107D700080190120C2ED0C0808B5FFF713FFFFF7CB
:107D8000E3FF064B1A7842B100221A700221BDE8C7
:107D900008402120024A92F085B908BDE9BB0120C4
:107DA00071EE0C0808B502211D20034A92F07AF901
:107DB000BDE80840FFF7C8BF92EE0C0808B5064AB8
:107DC00002211D2092F06EF9FF22044B1A70BDE8CB
:107DD0000840FFF7B9BF00BFA1EE0C080E7D0220DE
:107DE00008B5094B0146186858B100231822C6F09F
:107DF00003FD40B1054A0121BDE80840212092F071
:107E000051B9034AF7E708BD7C190120BBEE0C0805
:107E1000E8EE0C081FB50223ADF80030044B0190CA
:107E200068460293FFF7DCFF05B05DF804FB00BF76
:107E3000617E00088B68084603B1184702212120A3
:107E4000014A92F02FB900BF09EF0C080022024945
:107E500002482DF055B800BFDD800008F0C30020B7
:107E600008B50388022B0CD1064B1B781BB9BDE863
:107E70000840FFF7E7BEFFF767FFBDE80840FFF7E0
:107E8000E5BF08BDE9BB01200022024902482DF0F0
:107E900037B800BFD97A0008F0C3002010B5A4B0ED
:107EA00003AB0193812301AC02935FF085F9214676
:107EB0005FF094FE28B994E8030033F0E7FA24B0A9
:107EC00010BD01212120024A92F0ECF8F7E700BF33
:107ED00039EF0C0838B50379012B05D1BDE83840DE
:107EE00040F6B830FFF776BE174B1C781CB1BDE8E2
:107EF0003840FFF741BFFFF755FE144B1D78BDB961
:107F0000134894F067FC2A464FF46171114886F0DB
:107F100094FF04460E4894F062FC24B10121212014
:107F20000D4A92F0BFF8BDE838400020FFF7B6BF19
:107F300002212120094A92F0B5F822460849044856
:107F40002CF0DEFFEFE700BFE9BB0120EABB012018
:107F5000F0C3002018A0002026ED0C0851EF0C08FB
:107F6000597A000800230246194610B504462348F2
:107F7000C3F0BCF9224B186040B921200121214AED
:107F800092F090F840F2047075F0B7FC002322469E
:107F900001211D48C3F0AAF91C4B186040B92120EB
:107FA00001211B4A92F07EF840F2047075F0A5FCA6
:107FB00002212120174B184A92F074F80221174A27
:107FC0000123212092F06EF82DF0A4FB0368DB6FF3
:107FD00098470120FFF762FF01F0ECF900221049F9
:107FE000104894F0BDFB104894F039F90F4B10493C
:107FF000187010488AF0B9F810BD00BF157E00084F
:10800000841901208FEF0C0811D607088019012070
:10801000A9EF0C08B27C0D08C3EF0C08E7EF0C08C1
:10802000657A0008F0C30020C0B40020EABB01203C
:108030009C180120B099002038B50546FFF792FF43
:10804000044638B108482CF01DFC204675F055FC5C
:10805000204638BD2B6828469B6898470446002870
:10806000F6D00248EFE700BF04F00C0816F00C0849
:108070007FB5114B002401930223104E104D009345
:108080000121104B3046CDE902440F4A06F03AFE7A
:108090002A4630460D49B7F0C2FE2A460C480D4B21
:1080A0000D4903603033C0E90244436004B0BDE8C9
:1080B0007040B7F0B4BE00BF8D7C0008AC18012042
:1080C0001C710220A57D0008757C000839ED0008B0
:1080D0009818012030F00C08DDD5070810B50121F3
:1080E000094894F011FB20B15FF066F80121B8F067
:1080F00039FF06482CF05CFE2DF00CFBBDE810406B
:1081000003689B6F184700BFD4460120F0C30020CE
:1081100010B50446017804482CF02CFDA37883F0B8
:108120000103A37010BD00BFD446012073B50369DD
:108130000446E3B14369D3B10E4B684619680B6836
:108140001B699847D4E90423DDE90065A17800297B
:1081500018BF1346D4E902125B1842F10002B34281
:10816000AA4104D22046FFF7D3FFC4E9026502B05A
:1081700070BD00BFDC730220014894F071B900BFEC
:10818000C0B40020014894F06DB900BFC0B4002015
:1081900038B50546084B044645F8043B83689D42C4
:1081A00001D0B8F063FC284675F064FA284675F0F3
:1081B00059FA204638BD00BF30F20C08044A08B511
:1081C00083680260243242600BB1B8F04FFC08BDF6
:1081D000ECF10C08A0F10400F0E700BF10B5044674
:1081E000054B03604433436017F0C8FD2046FFF79A
:1081F000E5FF204610BD00BFD8720D08A0F10400B5
:10820000ECE700BF10B50446074B03F148020360DA
:1082100068334260C0F84C3317F0B0FD2046FFF7DA
:10822000DDFF204610BD00BF78730D08A0F10400EB
:10823000E8E7A0F55370E5E770B5104B044603F18D
:1082400020020360C26003F1340248334361436893
:108250000261051D23B1836813B1284675F00AFA3F
:1082600004F1300630467FF008FA304675F0FAF92E
:10827000284675F0F7F9204670BD00BFDC1A0D08DE
:10828000A0F11000D8E7A0F10C00D5E7A0F1140090
:10829000D2E700BF10B50446034B40F8183BFFF788
:1082A000CBFF204610BD00BF58180D081F2008B591
:1082B00002210C4A91F0F6FE0B482BF0B9FD78B97B
:1082C000042109482BF0D0F950B9084879F095FC01
:1082D0001F200221064A91F0E5FE034894F0BEF803
:1082E00008BD00BFB4F00C08C0B400207015002019
:1082F000D2F00C08F7B50025214F2248224B3A4610
:108300002249234CC0E901550360C56005744561ED
:108310000583B7F084FD3123264669462046019344
:10832000009517F01BFF1B4B294646F8D03B324601
:1083300004F1180007F0ACFF174B2946C4F8D03001
:10834000164BFF2204F1E400C4E93636C4E9324595
:1083500084F8E050B8F0C5FC41F20A433A462046A2
:108360000F4984F8E351A4F8D430B7F058FD3A46E9
:108370000C490D4803B0BDE8F040B7F050BD00BF58
:108380001C7102209819012094050E08C92C0308BD
:108390007015002058180D0840EF0D0824EF0D0847
:1083A0009582000833D6070880710220F0B5044694
:1083B00085B002211F20994A91F074FE23460221C4
:1083C0001F20974A91F06EFE964D02211F20934A7E
:1083D00091F068FE02211F20934A91F063FE2B78F2
:1083E0004BB928462CF056FE00280CBF0123002371
:1083F0002B7040F00B8121468C482AF003FA5EF086
:10840000DBFE0546B8F096FD002840F0FF80281DF1
:1084100027F0DEFA05F1080027F064FA2846B8F0E4
:108420009EFD834A834B0221002818BF13461F205C
:10843000814A91F037FEFFF739FF002840F0E680CF
:108440007E4B039001937E4B7E48029393F0BBFEDC
:108450007D4C039001AB7D4823632CF0ABFB0028DF
:1084600040F0D4807A4894F0B5F97A4ED6E8AF3F20
:10847000DA070BD430469DF02EF838B1764A7749AA
:108480007748B7F0CCFC30469DF02AF8754FD7E816
:10849000AF3F13F0010F744E1FD138469DF01BF80B
:1084A000D8B16F49304617F0CDFC704B304603F120
:1084B0004802336068337260C6F84C3300220023F0
:1084C0006B49C6E9D423C6E9D623C6E9D823624A54
:1084D000B7F0A5FC38469DF003F82664654ED6E853
:1084E000AF3FDB070BD430469CF0F5FF38B15A4A5A
:1084F00061496248B7F093FC30469CF0F1FF5F4E53
:1085000005F110015E4D304675F036FA2846666377
:108510002AF0E4FB2369A5631BB95A4B5A4A23612D
:108520005A60E36B26694BBB584D6B68002B6CD1CE
:1085300005F1140075F0F4F805F11C0075F0F0F881
:10854000EB6803B92B7295F83430514823F00503DA
:1085500085F8343075F0E4F84E4875F0E1F895F898
:1085600034304D4823F0180385F8343075F0D8F8CE
:1085700000236E602B7285F83430E563236C0BB9F1
:10858000464B2364464D474B2846216963628BF076
:108590007DF8636A28462B618AF056FA002835D1A7
:1085A00022692562002A33D03F4B404D5A606361F7
:1085B00002F0E4FC3E4B0221A0623E4A2120E3622D
:1085C00091F070FD284621691AF016F9F0B9636C34
:1085D000A5610BB9384B636420698EF083FA374B81
:1085E000A06419493648236019F02AFC044618484B
:1085F00094F0F5F83CB933482CF044F914482CF0C9
:10860000BFFC044630B1204600E0032005B0F0BDB9
:108610002F20FBE700F0C4F8F5E700BFFCF00C08E2
:108620002FF10C08E8C300203BF10C087C46012028
:10863000EBF00C08F3F00C084BF10C087981000802
:1086400085810008C0B4002034710220D446012086
:10865000F0C30020901901201C71022035D60708B4
:10866000307102208C1901200812002078730D0847
:1086700005820008881901209181000820710220DC
:10868000981901204C72022095640220983A01202A
:10869000BC3A0120C43A0120A43A012060700020B5
:1086A0002C3801202C72022024380120E8370120C8
:1086B000307202205DF10C08287202209818012007
:1086C000F87300208DF10C0810B51748FFF76EFE07
:1086D00008B175F012F9154B1548D3F8841492F0CF
:1086E0007BFB134827F064F9124894F073F85EF0AE
:1086F00063FD00B10C301EF0C7FE0E4894F06FF819
:108700001F2002210C4A91F0CDFC0C4859F034FC9A
:1087100008B175F0F2F80A4C2068C5F062FD08B1A6
:10872000B8F0A4F9206010BDB2F10C08F8A3002045
:1087300080710220F0C30020BEF10C0828990120AE
:108740009419012010B50A4893F0E0FF0021094A6E
:108750000948C5F0D2FC094C02212060084A1F20BC
:1087600091F0A0FC23680BB9B8F080F910BD00BFF0
:10877000D446012040F20C08C98600089419012053
:10878000D0F10C08014825F01BBC00BF443C01207F
:10879000024B01211868C5F07DBD00BFB41901204E
:1087A00010B50A4825F05EFB044608B1B8F05EF942
:1087B00001F062FB01F0A8FB2146054A0548C5F01F
:1087C0009CFC054B18600028F0D010BD443C0120F3
:1087D0006CF20C0885870008B419012010B5044616
:1087E00001210C20064A91F05DFC0023E068A360A3
:1087F00020B1BDE8104003689B68184710BD00BF5A
:1088000090F20C08A0F10400E8E700BF10B50A4C94
:10881000D4E8AF3FDB070DD420469CF05CFE48B1A6
:108820000648074B074A08490360B7F0F8FA2046A4
:108830009CF056FE014810BD1C1A0120201A012090
:10884000B8E60D081C71022063D7070810B504466E
:108850000B4B03606433436000F50E7034F01AF87C
:10886000636A23B1002204F11C0062629847236905
:1088700023B1002204F1080022619847204610BD70
:10888000B42F0D08A0F10400E0E700BF10B50446C6
:10889000034B40F8343B74F07AFF204610BD00BF14
:1088A00068290D0837B5C0680D46144638B901214E
:1088B0000C200E4A91F0F6FB002003B030BD1A6880
:1088C0002146019200221A6001AA0AF0B7F901A814
:1088D00074F05DFFA38823B9E38813B92378402B94
:1088E000EAD02B8943F040032B81E5E7A3F20C0883
:1088F000A0F10400D6E700BFF0B505460C461520F0
:1089000003211A4A85B091F0CDFBAF6817B9032057
:1089100005B0F0BD0023ADF808302389267B23B9CC
:108920006389022B1ED1142E02D00123ADF808302A
:10893000606833F005F863683246039302AB009336
:10894000A168384603AB25F0EFFE044603A874F097
:108950001EFF2CB1A86818B191F0D2FE0023AB60C5
:108960002046D5E7002BE0D1402EDDE7D6F20C08FB
:1089700073B516480AF054FB1549164AD1F88434E9
:10898000154E164D5360A1F5405133460F480095E2
:108990000AF03EFC124B33612AF07CFC044602468E
:1089A0000A4930460BF048FC294620462AF004FBD1
:1089B00040B10C482BF066FF6D210B4B0B4A0C4865
:1089C0005DF032FF6C6002B070BD00BF381800204F
:1089D000F8A30020A87102208871022058170020F7
:1089E00080510100E7F20C0803F30C0818F30C089F
:1089F00036F30C0870B500243248334B334E036015
:108A00006433436000F10803C0E90233304BC0E92E
:108A10000440836100F11C03C0E907332D4BC0E91A
:108A20000940C0E90B342C4BC0E90D4443642033AA
:108A300083640523C0E92044C0E92244C0E96444BA
:108A400080F83C40046480F8744080F89841C0F895
:108A50009C4180F8A04180F8B84180F8D04180F86E
:108A6000E841C0F81C321D4B32461D491D4DC0F86F
:108A70003832C0E98F4480F80042C0F8184280F8CC
:108A8000204280F84442B7F0CAF9324616491748E6
:108A9000B7F0C5F9324616491648B7F0C0F928466E
:108AA000154B6C6040F8103B2C722CF06BFEC5E946
:108AB0003444C5E9364432462846BDE870400F4983
:108AC000B7F0ADB938180020B42F0D081C71022082
:108AD000113E010821310108C0F30C0854390E0879
:108AE0004D8800085817002077D70708A871022082
:108AF00079D707088871022068290D088D88000839
:108B0000012903BF034B00201B78A62008BF137068
:108B1000704700BFABD40120022938B514461D466A
:108B20000FD1202200210848B8F0DBF83CB1202DFD
:108B30002A46214628BF20220348B7F08AFF00209A
:108B400038BDA620FCE700BF8BD40120104608B535
:108B50006AB163B102290CD1202B28BF20231A4609
:108B6000029B05491A60B7F074FF002008BD2F2052
:108B7000FCE7A620FAE700BF8BD40120012905D12C
:108B800002B11278024B00201A707047A62070477D
:108B9000ABD401202DE9F0431D46002389B00746E0
:108BA00008460E461446CDE905332CF05DFB18B996
:108BB000D82009B0BDE8F083304605A92CF020FC90
:108BC0000028F6D120462CF04FFB0028F0D020469C
:108BD00006A92CF015FC0028EBD1DDE905860790ED
:108BE00007A912482CF00CFC0446D8B9079B18EBD7
:108BF000030902D10EB1B7F039FF009302213B46C1
:108C00001F20CDE901860A4A91F04CFA6B689E421A
:108C10000AD8324649462868B8F049F86B689E423F
:108C2000E9D86E602046C4E71924FBE721720800EA
:108C300030F40C0801482CF033BD00BF007208006E
:108C4000002307B50348019301AB2CF02DFC03B0C2
:108C50005DF804FB0072080001482CF0DDBC00BF89
:108C60000C72080010B506480C462CF09DFB40F233
:108C70000123984202BF4FF6F1732380002010BDFC
:108C80000C72080001482CF00BBD00BF0D720800EB
:108C900073B5002601AB0C480C46154601962CF026
:108CA00003FC40F20123984208D14CB1062D09D9AA
:108CB00020462946054A74F0ABFD304602B070BD2F
:108CC0000B20FBE71920F9E70D7208004EF40C08A1
:108CD00001482CF0A1BC00BF0B72080010B506487B
:108CE0000C462CF061FB40F20123984202BF48F28F
:108CF00004032380002010BD0B72080001482CF0F3
:108D0000CFBC00BF0E72080073B5002601AB0C4843
:108D10000C46154601962CF0C7FB40F20123984201
:108D200008D14CB1062D09D920462946054A74F0D0
:108D30006FFD304602B070BD0B20FBE71920F9E74C
:108D40000E72080055F40C0801482CF0A9BC00BFB5
:108D500010720800002307B50348019301AB2CF003
:108D6000A3FB03B05DF804FB1072080001482CF06F
:108D700097BC00BF11720800002307B50348019398
:108D800001AB2CF091FB03B05DF804FB11720800FD
:108D900001482CF085BC00BF12720800002307B503
:108DA0000348019301AB2CF07FFB03B05DF804FB9B
:108DB0001272080001482CF02FBC00BF1872080086
:108DC00010B506480C462CF0EFFA40F20123984209
:108DD00002BF01232380002010BD00BF18720800CD
:108DE00001482CF05DBC00BF0F72080073B500266F
:108DF00001AB0C480C46154601962CF055FB40F291
:108E00000123984208D14CB10C2D09D9204629469E
:108E1000054A74F0FDFC304602B070BD0B20FBE744
:108E20001920F9E70F7208005FF40C0801482CF0D4
:108E300037BC00BF0472080001482CF035BB00BFEE
:108E40000472080001482CF04DBC00BF1F720800DE
:108E500007B50020009003482CF07CFB03B05DF8C0
:108E600004FB00BF1F72080001482CF019BC00BFB2
:108E70001972080073B5002601AB0C480C46154664
:108E800001962CF011FB40F20123984208D14CB11D
:108E9000012D09D920462946054A74F0B9FC30460F
:108EA00002B070BD0B20FBE71920F9E7197208002A
:108EB000B27C0D0801482CF0AFBB00BF0772080060
:108EC00013B510480C462CF06FFA40F20122904284
:108ED000034604D14FF47063238000230FE070B980
:108EE0002388B3F5805FF8D34FF4CD732F2401218D
:108EF000CDE90034044A054B91F0D4F823461846D6
:108F000002B010BD077208008CF40C086CF40C0859
:108F100001482CF099BB00BF0872080010B5064844
:108F20000C462CF06DFA40F20123984202BF4FF438
:108F30007A732360002010BD0872080001482CF0ED
:108F4000AFBB00BF0972080001482CF0ADBA00BFEA
:108F50000972080001482CF0A3BB00BF0A72080088
:108F600001482CF0A1BA00BF0A7208000B4610B5E8
:108F7000084A0C4608480949FFF70CFED82807D1D3
:108F80001EF02AFB03682146BDE810409B68184785
:108F900010BD00BF277208009DF40C08267208005F
:108FA0000B4610B5084A0C4608480949FFF7F2FD80
:108FB000D82807D11EF010FB03682146BDE81040F9
:108FC0005B69184710BD00BF25720800B9F40C0892
:108FD000247208000B4610B5084A0C460848094997
:108FE000FFF7D8FDD82807D11EF0F6FA036821460E
:108FF000BDE810401B69184710BD00BF2372080070
:10900000DFF40C0822720800022307B501A8D1E999
:10901000001201935DF0F2FF18B9019902482CF09B
:1090200013FB03B05DF804FB207208001FB502209B
:1090300003900698009003A85DF0F8FF18B9039913
:1090400002482CF001FB05B05DF804FB207208001B
:10905000002370B5164886B00D46164604932CF0D2
:1090600003F9E8B1124804A92CF0CAF9B0B9049B7D
:109070003246002B08BF0223294605A805935EF05F
:109080003DF80446029073681F2001936B6802212B
:109090000093084A049B91F005F8204606B070BD85
:1090A0001EF09AFA0368324629469B699847E8E71A
:1090B00020720800F8F40C0801482CF0C5BA00BF73
:1090C0002172080001482CF09BB900BF21720800F2
:1090D00001482CF0E5BA00BF2972080001482CF0C5
:1090E000E3B900BF2972080001482CF0FBBA00BFA9
:1090F0000572080007B50020009003482CF02AFAFA
:1091000003B05DF804FB00BF0572080001482CF0B5
:109110006BBA00BF2872080001482CF019B900BFD3
:109120002872080008B54A68102A01D02F2008BD0F
:10913000096802482CF0D6FAF9E700BF1772080058
:109140000023F0B54A688DB00F2A0C46029302D86E
:1091500019200DB0F0BD0093102202AB0968194828
:109160002CF0F8F940F20123984223D103AA1646C5
:10917000154B03F12007154618685968083303C5D5
:10918000BB422A46F7D11B7820212B703046102392
:10919000226890F015FF10280BD00021626820682B
:1091A000B7F09FFD1F200121084A90F07BFFAC2003
:1091B000CFE7002063680F2B01D8B7F057FC1023CE
:1091C0006360C6E7177208006FF50C0843F50C08DA
:1091D0000020094B10B5186032B9084C2146BDE893
:1091E000104007482CF030BAA1F5005105488C1802
:1091F00093F09DFAF2E700BF241A012000E017085F
:1092000021720800D446012000232DE9F04F85B0DB
:1092100080460F462C4803A9154603932CF0F0F81E
:10922000002838D1294E039933681BB9284893F098
:109230005DFA80BBD5E900143368039A02EB030B97
:1092400014F003031BD10A4623465946204893F0E5
:1092500053FA00BB404631682CF0F6F9D8B93846CD
:1092600069682CF0F1F9B0B932686B6800201344DA
:1092700013F03F021CBF40339B1A33600BE004F134
:10928000040AAAEB030A5046019127F0D1F801998C
:10929000814618B9AC2005B0BDE8F08F2246B7F082
:1092A000D8FBAAEB0402FF2109EB0400B7F019FD7B
:1092B00053464A465946064893F01EFA0446484625
:1092C00027F0DAF82046C4E721720800241A0120AA
:1092D000D446012008B50A4602480349FFF794FF27
:1092E00008BD00BF227208002372080008B50A46B4
:1092F00002480349FFF788FF08BD00BF2472080039
:109300002572080008B50A4602480349FFF77CFFAA
:1093100008BD00BF267208002772080008B50022A9
:109320000249034890F055FB002008BDCDD9020842
:10933000301B012008B500220249034890F049FB88
:10934000002008BDCDD90208281A0120014880F06C
:1093500002BE00BFE03701200022024902482BF084
:10936000CFBD00BF4D930008F0C30020002202498A
:1093700002482BF0C5BD00BF81930008F0C3002058
:10938000014880F0E2BD00BFE03701200A4608B97D
:10939000FFF7C4BF0146014890F03CBB301B0120E1
:1093A0000A4608B9FFF7C6BF0146014890F032BB34
:1093B000281A012008B502220749084824F030FD88
:1093C00003220749074824F02BFDBDE8084001228D
:1093D0000549064824F024BD8CF60C08301B0120FA
:1093E00068F60C08281A01205CF60C08443C0120A1
:1093F0000123034A82F80431024A82F8043170479B
:10940000301B0120281A01200021044600B589B034
:109410001A2201A80091B7F064FC2346074A1E21D6
:1094200068465DF021FB694605482BF02BFA68463B
:1094300000F008F8C3F02CF9B7F018FBA4F60C08FC
:10944000BAF60C08F0B59FB00446342168461AF00D
:1094500035FBBDF80220BDF800309A422ED000271F
:10946000C3F086FE02AD0523002215A9C3F040FC1F
:10947000082216992846B7F012FB28468DF810707E
:10948000B7F07CFB0126179BCDE90F502046CDE9B4
:109490000C378DF83860B7F071FB8DF84460CDE97A
:1094A000124091F0D4FC064B05A905930CAB069332
:1094B00032F02CF94FF48060C4F096FF1FB0F0BD7D
:1094C00001D907082DE9F04F0446D0E90098D0E90A
:1094D0000276374A87B0936A012105930369D2F86F
:1094E0002CB0D2F834A0956B01934369314A0293B2
:1094F00083690393C3690020049390F0D3FD012195
:109500000020059B2C4A90F0CDFD5B4601210020F8
:109510002A4A90F0C7FD534601210020284A90F0C6
:10952000C1FD2B4601210020264A90F0BBFD2B46B1
:1095300001210020234A90F0B5FD2346012100209F
:10954000214A90F0AFFD4B46012100201F4A90F0C8
:10955000A9FD4346012100201D4A90F0A3FD3B4692
:10956000012100201B4A90F09DFD3346012100207F
:10957000194A90F097FD01210020019B174A90F0B5
:1095800091FD01210020029B154A90F08BFD0121E5
:109590000020039B134A90F085FD01210020049BCD
:1095A000114A90F07FFD00F0AFFAC5F0FCF9FEE73C
:1095B00000ED00E01BF70C0826F70C083AF70C0842
:1095C0004EF70C0862F70C0876F70C088AF70C08BF
:1095D0009EF70C08B2F70C08C6F70C08DAF70C086F
:1095E000EEF70C0802F80C0816F80C08012108B573
:1095F000084A094B002090F055FD00F085FA064816
:10960000FFF720FFC5F0CFF9044905485CF038FCAE
:10961000FEE700BF86850E082AF80C08EBF60C085A
:1096200002F70C0800240D4600B59BB060222146CD
:1096300002A80194B7F055FB2B4664210A4A01A801
:109640005DF012FA0121094A01AB204690F02AFD93
:1096500000F05AFA01A8FFF7F5FEC5F0A4F9044995
:1096600004485CF00DFCFEE74DF80C0886850E08FA
:10967000EBF60C0802F70C08034B0360034B0B607E
:109680004FF4A073136070479C3101209C2C012083
:10969000034B0360034B0B604FF480631360704710
:1096A000382C0120381C012000240D4600B59BB049
:1096B0006022214602A80194B7F013FB2B466421D7
:1096C000084A01A85DF0D0F901212046064A01AB05
:1096D00090F0E8FC00F018FA01A8FFF7B3FEB7F02D
:1096E000C5F900BF60F80C0886850E08002310B588
:1096F00086B0CDE90233CDE9043302AB00931023E9
:10970000C0680C46019368B1036869469B68984736
:1097100040B1012122F038F9012103460A4A1F20F5
:1097200090F0C0FC019A63689A4209D152B1216855
:109730000098B7F0ACFAB0FA80F0400906B010BD5E
:109740000020FBE70120F9E770F80C08024B01212B
:109750001868C4F09FBD00BFC43201200D4BD988EA
:109760009A8889B292B2914211D0D9889A8889B2E6
:1097700092B291423DBF9A88D8881B89D8882DBF64
:109780009B8813FA80F0801AC01A80B270470020BC
:10979000704700BF00320120F8B50E46074608B9F1
:1097A000B7F064F9154D2C898C42F9D3FFF7D6FF39
:1097B000201A80B286421BD8EB88E888E41AA4B24B
:1097C000A6422B6815D92246394613FA80F0B7F025
:1097D00040F92868321B3919B7F03BF9EB8816FAC3
:1097E00083F12B89B1FBF3F203FB121189B2E980FB
:1097F000F8BD3246394613FA80F0EDE70032012019
:109800000023F0B5194EC3B0194FADF806314FF033
:10981000FF330022306801A9C5F022F80446002871
:10982000F5D1C4F0D6F8012105460846C0F0CCFABF
:109830002846C4F0C9F80F4BBDF8062101A93868C5
:1098400037F0D4FB4FF0FF3221460120C4F063FD16
:10985000C4F0BFF8054621460120C0F0B5FA2846FD
:10986000C4F0B2F823462246D4E700BF5C320120A0
:10987000747602204D9700082DE9F843DFF85080F8
:109880001E46B8F800901546A3EB09070D4BFFB232
:109890001C89FFF763FF241AA4B2A74207D83946F0
:1098A00005EB0900FFF778FF0023A8F80030064811
:1098B00032462946054B006837F0E6FABDE8F84322
:1098C000FEF766BF00320120747602207998000806
:1098D0004CB1012070B5204E3468002C3BD14FF4C0
:1098E00082711E4A7D20C4F047FF1D4D1D4A28602D
:1098F00021461D48C4F001FC1C4B1D4A9C801A6087
:109900004FF4807230601A81DC8008B9B7F0AEF88D
:109910002B68002BFAD0174C8022174B1749206870
:1099200037F0B2FA8022144B1549206837F0ACFAB0
:109930000B203DF0B3FF0B203DF06AFF1422114BCA
:109940000521DA640422A3F580531A650E48BDE8A8
:10995000704098F00CBE70BDC4320120B4F80C0801
:109960005C320120D4F80C08019800080032012074
:10997000ACD4012074760220799800082059022086
:10998000A05802200020015B0000015B08B5FEF733
:10999000FFFE0421034B03F500521165D164DB6C1B
:1099A00008BD00BF0000015B70B50C460546C2B0A3
:1099B00018B94FF0FF3042B070BD4B1EB3F5817F38
:1099C000F7D20B4E33680BB9FFF784FF22462946C6
:1099D00001A8B7F03EF84FF0FF331822306801A914
:1099E000ADF80641C4F008FF0028E2D120B2E2E75A
:1099F0005C32012030B50C46C3B0014618B94FF0B7
:109A0000FF3043B030BD631EFF2BF8D801AD2246B6
:109A10002846B7F01EF8084B08481B8818222B531D
:109A2000A31CADF80631294600230068C4F0E4FE0B
:109A30000028E4D120B2E4E7E5D60D085C3201202D
:109A40000422F0B52C4B0C46074685B01A65002859
:109A50004FD000294DD0FFF781FEA04219D2C3F0AC
:109A6000CBFF05462548264E03AB01A9006802AA94
:109A700098F0D0FC338802998B4207D20198C91A1A
:109A8000184489B2FFF788FE029B33802846C3F052
:109A9000AEFF1C4D2E89B44201D9B6F0E7FFFFF7A7
:109AA0005DFEA04228BF2046AB8884B2F61AB6B24B
:109AB000A6422B68A98817D2324613FA81F138469C
:109AC000B6F0C7FF2968A21BB819B6F0C2FFAB8871
:109AD0002A8914FA83F3B3FBF2F102FB11339BB230
:109AE000AB8020B205B0F0BD2246384613FA81F1B2
:109AF000EBE74FF0FF30F5E70010015B74760220D2
:109B00004CB1012000320120002330B50A4CC3B013
:109B10000A4DADF80631002320681A4601A9C4F0A9
:109B20009FFE08B143B030BDBDF80621286801A9E9
:109B300036F0CEFFEFE700BF5C32012074760220E2
:109B400008B5082026F074FC18B100234360014BCF
:109B5000036008BD40F90C0808B5082026F068FC31
:109B600018B100234360014B036008BD5CF90C0889
:109B7000436843B9054B0B6005234B6043680133D1
:109B80004360012070470020704700BFF8F80C08C0
:109B9000042370B5144645688AB0ADF802302B68CE
:109BA0000A4601A805499E6873F033FF22462846FD
:109BB0000DF1020301A9B0470AB070BDFEF80C0810
:109BC00030B54468134622688BB0156901A80A466F
:109BD000034973F01EFF204601A9A8470BB030BD12
:109BE0000BF90C0830B58DB04468019223680A4621
:109BF00003A80649DD6873F00CFF042320460DEB33
:109C0000030203A9A8470DB030BD00BFFEF80C0841
:109C1000F0B5A3B0064617A81F460C4615468EF0B1
:109C200015FF2A2217A80CA98EF023FF0DF10B03B4
:109C3000019315234FF48072009317A800238FF02F
:109C400035F950BB97E80300154B8DE80300D3E9C5
:109C5000002317A88FF002FAF8B9D7E90201114BD7
:109C60008DE80300D3E9002317A88FF0F7F9A0B916
:109C70009DF90B1017A88FF04EF970B9766822463F
:109C800033680949DF6803A82B4673F0C2FE3046EB
:109C9000BDF874300CAA03A9B84723B0F0BD00BFCB
:109CA000A8F90C08A0F90C080BF90C0813B5044628
:109CB00008460A4B1146C4E900300023C4E90333C7
:109CC0000193036822815B6A01AA984710B9019B3E
:109CD000C4E90303204602B010BD00BF24F90C08FC
:109CE0002DE9F041D0E90332934204460D469EB07F
:109CF00003D300201EB0BDE8F0812A2642683B490C
:109D00005768ADF802603A68D2F80880028910A856
:109D100073F07FFE38460DF1020305AA10A9C04773
:109D20000028E6D110A88EF0D4F9324605A910A873
:109D30008EF012FA4FF480720023152110A88EF0D5
:109D4000A4FD0028D5D10DF1010110A88EF0D7FB9C
:109D50000028CED1264BCDE90100D3E90023CDE97F
:109D6000030010A88EF084FD0028C2D101AE314658
:109D700010A88EF087FC0028BBD11E4B10A8D3E999
:109D800000238EF075FD0028B3D10DF10C0841467B
:109D900010A88EF077FC0028ABD110A88EF05DFDE6
:109DA0000028A6D19DF9011010A88EF002FD002810
:109DB0009FD196E8060004F1140704F12506384601
:109DC00073F04DFE98E80600304673F048FE3846C2
:109DD000B6F0D4FEC5E900703046B6F0CFFEC5E956
:109DE0000260E36801200133E36083E70BF90C08AC
:109DF000A8F90C08A0F90C08F8B505460E46002491
:109E0000094FAC4206DB24F06BF908498FF06BFE7A
:109E10000020F8BD24F064F956F8242039468FF06C
:109E200062FE0134EDE700BF76990E08B2F90C0826
:109E3000F8B505460E460024064FAC4201DB002073
:109E4000F8BD56F824303A4602211C2090F02AF939
:109E50000134F2E786850E0810B524F041F9044676
:109E60008CF02DF90349024620468FF03CFE00207D
:109E700010BD00BFB0F90C0803220249024823F0CC
:109E8000CFBF00BF04FA0C08443C01202DE9F04785
:109E900000240646E0B088464FF4BE72214601A871
:109EA0000094B6F01EFFA64228DD6D464FF0200953
:109EB00058F824A05046B6F061FE60AB2F189F42C0
:109EC00002461DD228465146B6F0E9FD7D1C60AB26
:109ED0009D4204F101042CBF3D4687F80090A64244
:109EE000E6D1084892F0BCFA68469BF082FB054830
:109EF00092F0B8FA002060B0BDE8F0872F20FAE7B2
:109F00001920F8E7C0B4002001220249024823F0DA
:109F100087BF00BF50FA0C08443C01200122024BCD
:109F200083F80421704700BFC832012010B50446F1
:109F3000034B40F8083B32F069F8204610BD00BFE3
:109F4000A4FD0C0810B50446034B40F80C3BFFF78A
:109F5000EDFF204610BD00BFC8FD0C0870B5836B37
:109F600005460C4643B1134B2420002918BF0B466D
:109F7000114A032190F096F82B6821465B6C284625
:109F80009847AB6B064653B1A0280AD1094B0B4A40
:109F9000002C18BF23460321242090F083F830467C
:109FA00070BD9F28FBD1034B054A002C18BF2346E8
:109FB000F1E700BF5CFA0C0863FA0C08A6FA0C087B
:109FC000F0FA0C082DE9F0411F46836B0546012B82
:109FD0000C46164608D9154B2420002918BF0B46FD
:109FE000134A032190F05EF82B683246D3F83C8088
:109FF00021463B462846C047AB6B0646012B0AD993
:10A00000A0280BD1094B0B4A002C18BF2346032173
:10A01000242090F047F83046BDE8F0819F28FAD11F
:10A02000024B054A002C18BF2346F0E75CFA0C08E7
:10A0300040FB0C087DFB0C08C4FB0C0810B5044663
:10A04000054B036000F5CF6090F0E8FD23690BB18C
:10A05000B6F00CFD204610BD98EA0D082DE9F3413D
:10A060001E46836B05460C46174633B10B4624202B
:10A0700003210F4A009690F015F82B683A46D3F862
:10A080004080214633462846C047AB6B0646012B2D
:10A090000AD99F2808D1074B0321002C18BF23465B
:10A0A0002420054A8FF0FEFF304602B0BDE8F08163
:10A0B00011FC0C085CFA0C0860FC0C0870B5044636
:10A0C0000B4B00F5387503F12C0203604C334260F2
:10A0D000836000F11006B54207D055F8080C283D02
:10A0E0000028F8D031F0BCFCF5E7204670BD00BF79
:10A0F0004C270E08A0F10400E0E7A0F10800DDE71E
:10A100000022002310B5C0E90023C0E90223C0E902
:10A1100004230D4B04460021836121226030B6F0F8
:10A12000E0FD4FF6FF720023A4F882204FF4807206
:10A13000204684F88130A4F88420C4F8883073F075
:10A1400067FD204610BD00BFAC020E0800F10803F9
:10A1500073B504460D46036011B91048B6F017F800
:10A160000846B6F00BFD0F2805EB0006019007D955
:10A170000022204601A95AF02FFC019B2060A36019
:10A18000324629462068B6F050F800212046019B4F
:10A1900022686360D15402B070BD00BFADFC0C08F2
:10A1A00010B50446044B0360406A73F0CBFCE068D2
:10A1B00073F0C1FD204610BD54FD0C0870B5164665
:10A1C00005460C468CB01146684673F006FD2946DC
:10A1D000304673F088FC641B0A4BE4105C4369460C
:10A1E00006A873F0FAFC2246002106AB284673F05D
:10A1F000E2FD06A8B5F0DCFF6846B5F0D9FF0CB06B
:10A2000070BD00BFABAAAAAA2DE9F04F4FF0180B02
:10A21000044617460E468DB000EB0B08351BB5F50E
:10A22000C07F22DD3F4BED105D4367BB4FF0180848
:10A23000AF1E7F10684608FB074173F0CEFC6946ED
:10A2400006A873F0CAFC20462A46394606AB73F0CE
:10A25000B2FD06A8B5F0ACFF57B96846B5F0A8FF47
:10A26000331B182BA6F1180607DC0DB0BDE8F08FE4
:10A270006846013FB5F09CFFDCE732463146204698
:10A28000FFF79CFFECE76D100BFB054540462946A8
:10A2900073F08CFDA6F11809C246494660B1284604
:10A2A00073F084FD08B129460BE04946404673F03F
:10A2B0007DFD28B1494604E0404673F077FD10B3B8
:10A2C00041462046B5F0F1FF35465046214673F031
:10A2D0006DFDD1460AF1180A0028F6D1A5F1180A39
:10A2E0005146204673F062FD5546AAF1180A00282F
:10A2F000F6D1A9450ED3013F31463A464846FFF70D
:10A3000083FF4E468AE74946284673F04FFD0028F2
:10A31000C9D0CFE729464846B5F0C7FF09F1180A6A
:10A32000D3E700BFABAAAAAA2DE9F04388420546AD
:10A330000E4687B005D0DFF8608000F11804A64211
:10A3400002D107B0BDE8F0832946204673F02EFD08
:10A3500004F11807E0B12146684673F03EFCB946A7
:10A36000641BE41008FB04F4002C08DC2846694652
:10A3700073F0B9FB6846B5F01BFF3C46DFE7A9F177
:10A380003001A9F11809484673F0ADFB013CEBE739
:10A39000204673F074FDF0E7ABAAAAAA2DE9F041BC
:10A3A000036886B09B6A0446984701210346394AF0
:10A3B00024208FF077FE236821466846DB6A9847A1
:10A3C000039E002430460DF10408404505D1324B70
:10A3D0009C4206DD3148B5F0DDFEB5F07EFD01346E
:10A3E000F3E7182767431CB138469AF091FA044600
:10A3F000254646452CD1AC4217D0294B2E1BF210D6
:10A400005A43B2FA82F2C2F11F0229462046520094
:10A41000FFF7FAFEB6F5C07F2ADD04F5C0763146B7
:10A420002046FFF781FFB5421DD12646DFF8748034
:10A43000B54222D12646B54227D11CB13946204625
:10A440009AF076FA029873F07DFB06B0BDE8F081D1
:10A45000284606F1100173F094FB3046B5F03DFD3F
:10A4600018350646C5E7304673F009FD1836DAE7B9
:10A4700029462046FFF758FFD7E74246012124200E
:10A4800056F8183B8FF00EFED2E73046B5F090FE3E
:10A490001836D0E7DFFC0C085555550510FD0C08A3
:10A4A000ABAAAAAA41FD0C08F8B500253F4C6019DB
:10A4B0009035FFF725FEB5F5347FF8D100253C48EF
:10A4C000FFF71EFE0026C4E9D855C4E9DA55A4F802
:10A4D0007053C4F8745384F8785384F8805384F824
:10A4E0008253A4F8845300271224324A32492F4859
:10A4F000B5F095FC314B324A1A6002F12C014C3216
:10A50000C3E9022559601033102218460021B6F025
:10A51000E8FB41F2A4520346013CC0E9066705741A
:10A5200042824561056203F12803EDD1214A2549A4
:10A530002248B5F074FC244824F0A8FA1D4A2349A7
:10A540002148B5F06CFC224832F018FB194A214929
:10A550001F48B5F064FC2048204B164A2049C0E94A
:10A56000014403600473B5F05AFC1E481E4B114AA7
:10A57000036000F10803C0E904331C4900F1200323
:10A58000C0E90A330472C460846180F820404462E8
:10A59000046380F834408463B5F041FCBDE8F840C2
:10A5A000044A13491348B5F03ABC00BF20360020D6
:10A5B000F03800201C7102206DDC070840330020B9
:10A5C0004C270E08BDA00008902B00203DA00008DD
:10A5D000881A002099CD03080C34012054390E0844
:10A5E00095C80308D033012054FD0C08A1A1000830
:10A5F000459F0008B071022070B5036805460C46FF
:10A6000016460BB1032070BD02210D20074A8FF0C2
:10A6100049FD0CB92F20F6E723682046DB689847F0
:10A620000028F0D1C5E90046EDE700BFD4FD0C08D5
:10A630002DE9F04F074600688BB004680D46646C46
:10A6400090461E46A0472D2804460ED048B19F4A8A
:10A650009F4B0221A52808BF13460D209D4A8FF06D
:10A6600021FD20460BB0BDE8F08F6B78202B01D187
:10A670000024F6E7984B3868029358B103682A46DD
:10A680001B6C02A99847044630B1029803689B6886
:10A690009847E6E70324F8E74FF0000A4FF0000B75
:10A6A0008E4B0393029803A90368DB68984730B187
:10A6B00002210D208A4A8FF0F5FCA52410E08DF8C8
:10A6C000060003980DF106010368DB68984704460D
:10A6D00030B99DF80630402B06D0802B04D00324DF
:10A6E00003A873F0DBFED0E76A789A42DAD101233F
:10A6F00003988DF8073003680DF107015B699847EF
:10A7000004460028ECD19DF80730082B18D8002B00
:10A71000C8D0013B072BC5D801A252F823F000BFD7
:10A7200059A700086BA70008A5A6000877A700088E
:10A73000A5A60008A5A60008A5A6000895A70008DC
:10A74000102BAFD1102E1AD0082EABD84FF48B732C
:10A75000F340D807A6D512E006F1FF3CDCF1000378
:10A7600043EB0C03002B9DD009E0731E012B8CBF23
:10A7700000230123F6E7042E01D0012E92D10023FD
:10A7800003980493036804A95B6A9847814648B11B
:10A790004C46A5E7082E85D86FF489733341DC0752
:10A7A000EDD57FE7049B1BBB00230398059303684B
:10A7B00005A99B6B984781460028E9D1059B002B92
:10A7C0007FD100248CE74FF0FF31C21C994274EB1B
:10A7D000020243D39DF80620402A80D14FEA134C51
:10A7E00005F10C0105F118048C4229D109F1010988
:10A7F000049B4B457FF656AFCDE906AB039849461F
:10A80000036806AA9B6A9847044600287FF468AF4D
:10A81000DDE906306FF0010C5A1E40F1FF3194451E
:10A820006FF010028A41CED39DF80620402A7FF4B3
:10A8300056AFD5E90212904208BF8B42D6D1B3E79A
:10A8400051F8042F002ACFD0BCEB124FCCD198B2D4
:10A850000028C9D092B29042C6D8A5E713F5803F30
:10A8600070F1FF32FFF43BAF9DF80620802ADEE74F
:10A8700000230398069303684946DB6B06AA9847B2
:10A88000044600287FF42CAF069BD90704D5D8F8DE
:10A8900000200799914212D19A0705D5BDF82010E2
:10A8A000B8F8042091420AD15B078AD57868B8F8D5
:10A8B0000420036809999B689847002881D109F111
:10A8C0000109059B4B45D3D8ECE600BF1CFE0C08E4
:10A8D0007FBF0E08F0FD0C08D8710220DC71022049
:10A8E0000DFE0C080023F0B58BB0CDE9043305460E
:10A8F00000688DF80D308DF80E308DF80F3003683C
:10A900000DF10D01DB6898470446002840F0C78030
:10A9100028680DF10E0103681B699847044600285A
:10A9200040F0BD8028680DF10F0103685B6998470E
:10A930000446002840F0B380286804A903685B6AD5
:10A9400098470446002840F0AA80286805A90368B3
:10A950009B6B98470446002840F0A1809DF80E307C
:10A96000002B00F09E809DF80D30402B07D0802BEF
:10A9700040F09E809DF80F30102B00F09B80264603
:10A98000049BB34207D800264B4F059BA3423AD8FD
:10A9900001200BB0F0BD28683146036806AA9B6A07
:10A9A0009847002879D19DF80D30402B16D1DDE96C
:10A9B00006326FF0010C591E42F1FF378C456FF0E3
:10A9C0001001B94108D24FF0FF310332994270EBC8
:10A9D00002020CD39BB253B10136D1E7802B06D1D2
:10A9E000069B079A13F5803F72F1FF32F1E7334B74
:10A9F0000446002856D001210D20314A00948FF0E2
:10AA000051FB0020C5E72868069603682146DB6BEA
:10AA100006AA9847002840D1069B03F0020103F0E4
:10AA20000402DB0710D411B1F2B1264BE0E7002A93
:10AA3000FBD0099B03EA070212F5003FF5D89BB251
:10AA4000B3F5404FF1D215E009B1002AEDD1079BD3
:10AA500013F5302F4FEA134CE7D2BCF1000F0BD1A6
:10AA60001B0410D56046E0E74FF6FF73BDF82020C9
:10AA70009A42DAD0013488E740F2FE3C03F5806365
:10AA80009BB26345D1D829B14FF6FF73BDF82010B2
:10AA90009942CAD0002ACCD1ECE70B4BA8E70A4B6D
:10AAA000A9E70A4B01210D20094A8FF0FBFAA8E71C
:10AAB000084BF7E7084BF5E70000FFFF34FE0C08F2
:10AAC0008CFE0C0844FE0C0823FE0C0877FE0C08D4
:10AAD000A2FE0C0865FE0C0853FE0C082DE9F0439D
:10AAE0000546006887B088461F468DF80F2020B9BC
:10AAF0000324204607B0BDE8F083DFF86490AB681C
:10AB0000CDF81490EBB900262868394603680DF19A
:10AB10000F02DB6B9847044678B91EB133684B458A
:10AB200008BF002602234146CDE9006328463B4684
:10AB30009DF80F2073F0D3FC002405A873F0AEFC41
:10AB4000D7E79DF80F3039468DF81330036805AA12
:10AB50005C6B0DF11303A0470028D4D105AED3E7F9
:10AB6000DC710220034B1868034B002808BF18460D
:10AB7000704700BF203401202434012010B5044662
:10AB800002210D20024A8FF08DFA024B1C6010BD8D
:10AB9000B4FE0C082034012010B5094C09492246A6
:10ABA0000948B5F03CF9224608490948B5F037F99B
:10ABB0002246BDE8104007490748B5F030B900BF4C
:10ABC0001C7102206BE40708243401207DE407088F
:10ABD000DC7102207FE40708D87102200023F7B55A
:10ABE000CDE900334AB96E4601AB15240E4A013C4B
:10ABF00006D11423036003B0F0BD6B4601AEF4E749
:10AC00001578002DF5D055788D4206D10768356846
:10AC1000AF4207D0019D01350195009D40320135BD
:10AC20000095E4E71B68E5E7E839002007B50190E7
:10AC300021B10122097801A8FFF7D0FF019813285C
:10AC40000AD8064B820103EB80109B5C002B08BFE7
:10AC5000002003B05DF804FB0020FAE7E83900208B
:10AC60000023152010B51360074B013801D10020D7
:10AC700010BD1C78002CFAD05C7840338C4202BFA7
:10AC8000146801341460F0E7E839002000231A4604
:10AC900010B50648B3F5A06F0A6001D1002010BDC1
:10ACA0004033C45C002CF9D00132F3E7A83900200E
:10ACB0000868114B70B598420E46154603D303F150
:10ACC0000C02904214D31B79A3B90B4C03689B6808
:10ACD00098470123002D3460237108BF00234FF0F3
:10ACE0000000637118BF2B78A06018BFA37170BDFE
:10ACF0000446EBE71920FAE73434012002210D2045
:10AD0000014A8FF0CFB900BF38FF0C0838B50221D7
:10AD10000D20074A8FF0C6F90024064D6019403413
:10AD2000B4F5A86F01D1002038BD73F07CFCF5E7C5
:10AD300060FF0C08E839002038B50B4B0C469842F0
:10AD400002D30C33984201D3B5F090FE85680FCD45
:10AD50000FC40FCD0FC40FCD0FC495E80F0084E8CA
:10AD60000F00002038BD00BFE47102202DE9F04142
:10AD7000144C1F460E461523A046013B01D1192055
:10AD80001EE0217871B14034F7E763783B70B6B1CB
:10AD9000A4EB0804A41134602A4630463978FFF742
:10ADA0001DFF0CE021461068FFF7C6FF054630B9CD
:10ADB000002FEAD11EB1A4EB0804A4113460284688
:10ADC000BDE8F081E8390020064B984203D303F137
:10ADD0000C02904204D39B680248002B18BF00204D
:10ADE000704700BFE471022010B50868FFF7ECFF60
:10ADF00080B18268084B0AB19A4206D21B784BB9DF
:10AE0000054A73F057FC002010BD03F14004A24234
:10AE1000F4D2F6E71920F7E7A839002038B5114A2F
:10AE200083684BB9104B83608468944201D02378C7
:10AE300033B982600A2038BD9342F5D24033F2E73D
:10AE400043791BB1657883799D42E9D10868FFF7A2
:10AE5000BBFF20B1224673F02DFC0020EBE7192048
:10AE6000E9E700BFE83E0020E8390020F0B50E4FCA
:10AE700084680646BC4205D307F140039C4201D2D8
:10AE80000020F0BD3B7863B9074D0FCC0FC50FCC48
:10AE90000FC50FCC0FC594E80F0085E80F00B76011
:10AEA000EEE71920EDE700BFA83900202DE9F041B9
:10AEB0000E4611463046FFF7B9FE0446002842D040
:10AEC000224FBB68984202D13846FFF7CFFFDFF828
:10AED0008C80444516D204F1400CC4450FD294F83E
:10AEE000403063B165460FCD0FC40FCD0FC40FCDF9
:10AEF0000FC495E80F0084E80F006446E9E7204698
:10AF000073F091FB124CBB6804EB86169E4212D084
:10AF100003D2434501D2403BBB600E4A93689E4238
:10AF200006D8434504D2A3420CBF0023403B9360A4
:10AF30000020BDE8F0817D68286803689B68984719
:10AF4000054B2B60E9E70A20F3E700BFE47102201C
:10AF5000E839002034340120DC710220E83E002072
:10AF60008268054B00219A4203D340339A4238BF8E
:10AF700011708160704700BFA839002010B5094CDE
:10AF8000D4E8AF3FDB070BD420469AF0A4FA38B1DF
:10AF9000054A06490648B4F042FF20469AF0A0FA56
:10AFA000034810BD303401201C710220FDE6070863
:10AFB000E071022010B5084C084922460020B4F088
:10AFC0002EFF0020064B074A18711A6006492246D8
:10AFD000BDE81040B4F023BF1C71022003E707084E
:10AFE00034340120E4FF0C08A9E7070870B5104EBF
:10AFF000D6E8AF4F14F0010418D130469AF06BFA3E
:10B00000A0B10C4D0C4A2B4607CA43F8044B83E809
:10B0100007004FF6FF722A824FF0FF321846C5E94B
:10B02000052473F016FD30469AF05AFA014870BDB7
:10B03000403401204434012078000D0838B505461D
:10B0400004300C4673F005FD2A6813461BB9E26014
:10B0500001202C600DE09868A16888420ED1197912
:10B0600009B1217931B923200121054A8FF01AF85D
:10B07000002038BDD888E1888842F4D0DB68E5E755
:10B0800044000D082DE9FF410A9F884616461D46DB
:10B090008FF02BF8044600283FD0D6E900010026A7
:10B0A000231DD8F80020C4E90133C4E906011D4B73
:10B0B000267323602661226204F1280C95E80F00B4
:10B0C0008CE80F002B7C04F1480084F838306B8A40
:10B0D00063876B69E363D5E90623C4E91023124B48
:10B0E00004F1580519680B689B68984700220023F3
:10B0F000C4E9142301AB97E8070083E807000123A4
:10B1000085E80700A4F87430084B84F8646084F87C
:10B11000686084F86C60A6672360204604B0BDE8D0
:10B12000F08100BFD4000D08DC7302201C010D0863
:10B13000094A08B5026002690AB1B5F097FC074AEE
:10B14000011D026082688A42F7D141680029F4D06B
:10B150004A604368136008BDD4000D088C000D08D8
:10B1600010B50446024B0360FFF7E2FF204610BD16
:10B170001C010D08F7B50C46114B054619686846C9
:10B180000B689B689847D4E91421009B20469F1ABE
:10B19000019B63EB010674F03CF8038920469F4253
:10B1A00076F1000309D274F034F8043003682846BD
:10B1B0002B6000236B6003B0F0BD74F02AF8F5E754
:10B1C000DC7302202DE9F04307460E4615469846EB
:10B1D0006FF001096FF010048BB08AF03FFF421E40
:10B1E00041F1FF33914574EB0303F6D30023183686
:10B1F000CDE90401029330462B46CDF8008004AA25
:10B2000002A9FFF73FFF044650BB4FF0FF324FF05B
:10B21000FF33CDE9062306AB03900893304603AB1A
:10B220001C4A08A909938EF0C8FF039C2CB900237F
:10B230003B7038460BB0BDE8F083236820461B689E
:10B240009847214630468EF096FF2B463046CDF883
:10B25000008004AA02A9FFF715FF04460028E6D0E3
:10B2600095E80F0004F1280686E80F002B7C2046A5
:10B2700084F838306B8A63876B69E363D5E906230A
:10B28000C4E9102301233B7023687C60DB68984786
:10B29000CFE700BF79F10708084B10B503601833FA
:10B2A00043600446083074F028F8014620B960690C
:10B2B00000F5CF608FF0C8FC204610BDC8020D0815
:10B2C000A0F10400E8E700BF2DE9F04F06460C4668
:10B2D0008FB01D469DF8643090460793D1E9002356
:10B2E000CDE9003227200B7A2D4A0321189FDDF883
:10B2F00068A09DF86C908EF0D5FE00222146304665
:10B3000074F04CF8834670BB03212720254A8EF049
:10B31000C9FED6F834C0DCF800E0049694E80F00CB
:10B320008DE80F006046DEF80030326B06F1080150
:10B3300098478346B8B925B10B2221462B69E868A6
:10B3400098476FB194E80F0008AD85E80F000B2314
:10B350000C93002329468DF83430F8683B699847F0
:10B360000FB0BDE8F08F5846079981F00EFDBAF195
:10B37000000F03D05146584611F028FC2DB14B4622
:10B380002A464146584681F008FE002FE8D04B4639
:10B390003A46414658460FB0BDE8F04F81F005BE31
:10B3A0005C010D088D010D0882B070B586B00AA948
:10B3B00081E80C000122054673F0F0FF0446E8B96D
:10B3C00003212720134A8EF06DFE6C6B0AAB2668B2
:10B3D00004950FCB8DE80F00204633682A6B05F1EA
:10B3E00008019847044688B9032127200A4A8EF0AD
:10B3F00059FE06B0BDE8704002B070470A9B0321B9
:10B40000009327200B9B054A8EF04CFE204611F03E
:10B4100067FDEEE7D8010D081E020D0865020D0854
:10B4200010B5094C094A02210D208EF03BFEFFF7B2
:10B43000DDFD2146FFF702FEFFF794FB04F110014A
:10B44000BDE8104073F032B860340120EC020D0802
:10B450002DE9F84391F8387004460E464FF0000885
:10B460000FB191F83980002504F1080948468CF0A5
:10B4700030FE3146484625608CF040FE84F840702E
:10B480000FB184F84180064BA4F85050A36484F8AF
:10B49000905084F8D05084F8D8502046BDE8F88306
:10B4A000DC71022070B590F9343004460133A6B047
:10B4B00002D1002026B070BD0368002BF9D100F145
:10B4C000080528468DF0A9F9014620600028F0D132
:10B4D000134E942201A80096B5F003FCA06C0368FB
:10B4E0009B689847892202A9A66404F15000B5F030
:10B4F000B0FA684672F0D2FF294604F1480083F0A2
:10B5000094FA20600028D4D194F840302BB1A06C7C
:10B5100094F841100368DB6998470120CAE700BF2F
:10B52000DC7102202DE9F041CEB007460E460D7ABF
:10B53000FFF718FB006850B1036829465B6A03AA4D
:10B540009847044628B120464EB0BDE8F081032458
:10B55000F9E7FFF707FB04A9006873F06EFF0446E4
:10B560000028F0D1BB7B012B00F2828006A88CF072
:10B57000B0FD2246214606A88CF0EEFD304606A915
:10B580008DF8504073F085FF074608B10446DAE7AE
:10B590009DF94430013310D1059006A916A8FFF794
:10B5A00057FF16A8FFF77EFFA8B9169C28A8212CE4
:10B5B0001BD0D4B172F072FFC5E705A906A88DF0C3
:10B5C00094F908B10446BEE7DDE904329A42E4D9B1
:10B5D00040F28954B7E728A8FFF784F90028E0D1A2
:10B5E00028A872F05BFF2F24ADE772F057FF06A981
:10B5F00016A8FFF72DFF06F1080816A8FFF752FF5F
:10B6000028B9169C212C31D084B328A8D2E7039BFB
:10B61000BB420DD9FFF7A6FA28AB00932A463B465A
:10B62000414672F0BCFF04460028EED10137E4E742
:10B63000FFF798FA28AB00932A460023414672F0A0
:10B6400065FFF0E7013B0393FFF78CFA2A4631468A
:10B65000039BFFF743FA04460028D6D1039B9F4281
:10B66000F0D328A872F01AFF00246CE70836F5E73B
:10B67000042B30D1039B049A01339342A8D8174B73
:10B68000ADF86000169301233371337A8DF8A00072
:10B690008DF8E0008DF8E80016AFB3B13846316898
:10B6A00083F0C3F9044690B9169816F8081F03688A
:10B6B000DB699847FFF756FA23462A46314600973A
:10B6C00072F024FF28B93846CCE740F27E54384661
:10B6D00070E70446FBE76C2435E700BFDC7102200D
:10B6E00013B508468368114633B1012B40F28650EA
:10B6F00018BF002002B010BDFFF714FF2F280ED096
:10B70000D8280CD00B28F5D140F2895403460121EA
:10B710000D20044A00948EF0C5FC2046EAE740F272
:10B720008754F3E70F030D0870B5104B86B004463D
:10B730000E46CDE9003015460EF000FB00230493C1
:10B740001F23039301238DF8143094F83C30ADF897
:10B7500008608DF8153013B9712006B070BD2B4606
:10B76000694602AA7DF0AEFEF7E700BFA4030D080C
:10B7700070B5B4B00C46DDE93865002945D04022EB
:10B78000002102A8B5F0ADFA2378012D8DF84430E0
:10B7900002D18DF81C5001E0022DFAD06378402BC5
:10B7A00035D1D4E90223CDE9022301238DF81030ED
:10B7B000002E35D000213C2224A8ADF84C108DF885
:10B7C00058108DF864108DF868101296B5F089FA4B
:10B7D00012A883F034F9044688B908AD13AE0FCE31
:10B7E0000FC596E80F0085E80F0001236A46214641
:10B7F0008DF8403002A8FFF797FF044628B1234692
:10B8000001210D20084A8EF04DFC34B070BD202B74
:10B8100001BFA368ADF8183001238DF81A30C7E7CF
:10B820006A463146E6E700BF3A030D082DE9F047C6
:10B830008C681546042CB8B009D80023042C10D805
:10B84000DFE814F011000F00FC00160120014FF694
:10B85000FC739C4200F01E814FF6FD739C4200F089
:10B86000378100246FE000219C4B3C2204939C4BC9
:10B8700005AE28A80593ADF85C108DF868108DF81A
:10B8800074108DF878101696B5F02BFA012328461F
:10B8900085F8443073F05FFB044600284CD10BA8B8
:10B8A0000A958DF0D3F88F4873F0CFFD38B38E48EA
:10B8B000B0F83C3900F6880003F00503052B0CBFF7
:10B8C0000746002700220523DFF82482CDE908235C
:10B8D0004046CDE9068773F0B8FD10B906A873F0AD
:10B8E000C4FD089C052C0CD1284673F079FB00247C
:10B8F0004FF6FF7385F84C40A5F84A301CE0074628
:10B90000E0E7902303FB048494F8819047B1384624
:10B9100073F09BFD20B197F881304B4508BF3C4642
:10B9200094F88140FFF71EF900688DF80C4070B95B
:10B93000284673F055FB0324304672F0AFFD04989F
:10B9400003689B689847204638B0BDE8F0870368D5
:10B9500003AA1B6C04A998470446CCB155E0169B7A
:10B960008DF80C40186803A903681B6998479DF877
:10B970000C30002B60D00A9B93F845309BB9DDF862
:10B9800028900BA9484699F808A073F050FBC8B955
:10B99000049831460368DB68984704460028DED0E7
:10B9A0000A289BD031E0169B8DF80C40186803A93B
:10B9B00003681B6998470A9A9DF80C30127A9A42DC
:10B9C000E6D1DCE799F84630D9F800107BB1096C74
:10B9D0004FF480720023CDF800A016A883F016F96A
:10B9E000044601460BAA484673F03AFBB5E7D9F87E
:10B9F000403009F1280203A873F067FA044640B109
:10BA0000214648460BAA73F02BFB284673F0E8FA50
:10BA100092E7D9F800300222196C16A80023CDF85D
:10BA200000A083F0F3F804460028E9D1D9F800100B
:10BA300003A873F082FAD3E77124E6E71693FFF7C1
:10BA400091F8006890B103689B6916A9984704466D
:10BA500000287FF478AF169B0AA9ADF8283001239F
:10BA600085F84430284673F04AFD2FE003246AE746
:10BA70001693FFF777F8006800283FF464AF036877
:10BA8000DB69E2E71693FFF76DF816A9006873F01B
:10BA9000D4FCDCE7012382F844302968136C16A833
:10BAA000283273F012FA044600287FF44CAF2B685A
:10BAB0000222186C009400238DF08AF904460028B5
:10BAC0007FF441AF296816A873F037FA04463AE7C5
:10BAD0000123064982F84430C4E700BFD871022030
:10BAE000DC710220809C0020F8930020B0030D0838
